{"abi":[{"type":"receive","stateMutability":"payable"},{"type":"function","name":"increment","inputs":[],"outputs":[],"stateMutability":"nonpayable"},{"type":"function","name":"revertingFunction","inputs":[],"outputs":[],"stateMutability":"pure"},{"type":"function","name":"setValue","inputs":[{"name":"_value","type":"uint256","internalType":"uint256"}],"outputs":[],"stateMutability":"nonpayable"},{"type":"function","name":"value","inputs":[],"outputs":[{"name":"","type":"uint256","internalType":"uint256"}],"stateMutability":"view"}],"bytecode":{"object":"0x6080806040523460155761012b908161001a8239f35b5f80fdfe6080806040526004361015601a575b5036156018575f80fd5b005b5f3560e01c9081633fa4f2451460de57508063552410771460c8578063c84f59b41460835763d09de08a14604d575f600e565b34607f575f366003190112607f575f545f198114606b576001015f55005b634e487b7160e01b5f52601160045260245ffd5b5f80fd5b34607f575f366003190112607f5760405162461bcd60e51b815260206004820152600f60248201526e15185c99d95d081c995d995c9d1959608a1b6044820152606490fd5b34607f576020366003190112607f576004355f55005b34607f575f366003190112607f576020905f548152f3fea2646970667358221220b4de02096eed826f03d3b8a2ab4c8535120078ffd5824dfae4e38c5b9597ae7264736f6c634300081c0033","linkReferences":{}},"methodIdentifiers":{"increment()":"d09de08a","revertingFunction()":"c84f59b4","setValue(uint256)":"55241077","value()":"3fa4f245"},"id":66}