{"abi":[{"type":"receive","stateMutability":"payable"},{"type":"function","name":"increment","inputs":[],"outputs":[],"stateMutability":"nonpayable"},{"type":"function","name":"revertingFunction","inputs":[],"outputs":[],"stateMutability":"pure"},{"type":"function","name":"setValue","inputs":[{"name":"_value","type":"uint256","internalType":"uint256"}],"outputs":[],"stateMutability":"nonpayable"},{"type":"function","name":"value","inputs":[],"outputs":[{"name":"","type":"uint256","internalType":"uint256"}],"stateMutability":"view"}],"bytecode":{"object":"0x6080604052348015600e575f5ffd5b506102d88061001c5f395ff3fe608060405260043610610042575f3560e01c80633fa4f2451461004d5780635524107714610077578063c84f59b41461009f578063d09de08a146100b557610049565b3661004957005b5f5ffd5b348015610058575f5ffd5b506100616100cb565b60405161006e9190610144565b60405180910390f35b348015610082575f5ffd5b5061009d6004803603810190610098919061018b565b6100d0565b005b3480156100aa575f5ffd5b506100b36100d9565b005b3480156100c0575f5ffd5b506100c9610114565b005b5f5481565b805f8190555050565b6040517f08c379a000000000000000000000000000000000000000000000000000000000815260040161010b90610210565b60405180910390fd5b5f5f8154809291906101259061025b565b9190505550565b5f819050919050565b61013e8161012c565b82525050565b5f6020820190506101575f830184610135565b92915050565b5f5ffd5b61016a8161012c565b8114610174575f5ffd5b50565b5f8135905061018581610161565b92915050565b5f602082840312156101a05761019f61015d565b5b5f6101ad84828501610177565b91505092915050565b5f82825260208201905092915050565b7f54617267657420726576657274656400000000000000000000000000000000005f82015250565b5f6101fa600f836101b6565b9150610205826101c6565b602082019050919050565b5f6020820190508181035f830152610227816101ee565b9050919050565b7f4e487b71000000000000000000000000000000000000000000000000000000005f52601160045260245ffd5b5f6102658261012c565b91507fffffffffffffffffffffffffffffffffffffffffffffffffffffffffffffffff82036102975761029661022e565b5b60018201905091905056fea26469706673582212202db0a9e1b246430874fe7dc893ad6fd870bf13e0e2aa1284d609c6d5aa49475b64736f6c634300081c0033","linkReferences":{}},"methodIdentifiers":{"increment()":"d09de08a","revertingFunction()":"c84f59b4","setValue(uint256)":"55241077","value()":"3fa4f245"},"id":71}