{"abi":[{"type":"constructor","inputs":[{"name":"ePoint","type":"address","internalType":"contract IEntryPoint"}],"stateMutability":"nonpayable"},{"type":"receive","stateMutability":"payable"},{"type":"function","name":"UPGRADE_INTERFACE_VERSION","inputs":[],"outputs":[{"name":"","type":"string","internalType":"string"}],"stateMutability":"view"},{"type":"function","name":"addDeposit","inputs":[],"outputs":[],"stateMutability":"payable"},{"type":"function","name":"entryPoint","inputs":[],"outputs":[{"name":"","type":"address","internalType":"contract IEntryPoint"}],"stateMutability":"view"},{"type":"function","name":"execute","inputs":[{"name":"dest","type":"address","internalType":"address"},{"name":"value","type":"uint256","internalType":"uint256"},{"name":"data","type":"bytes","internalType":"bytes"}],"outputs":[],"stateMutability":"nonpayable"},{"type":"function","name":"executeBatch","inputs":[{"name":"dest","type":"address[]","internalType":"address[]"},{"name":"value","type":"uint256[]","internalType":"uint256[]"},{"name":"func","type":"bytes[]","internalType":"bytes[]"}],"outputs":[],"stateMutability":"nonpayable"},{"type":"function","name":"getDeposit","inputs":[],"outputs":[{"name":"","type":"uint256","internalType":"uint256"}],"stateMutability":"view"},{"type":"function","name":"getNonce","inputs":[],"outputs":[{"name":"","type":"uint256","internalType":"uint256"}],"stateMutability":"view"},{"type":"function","name":"initialize","inputs":[{"name":"anOwner","type":"address","internalType":"address"}],"outputs":[],"stateMutability":"nonpayable"},{"type":"function","name":"owner","inputs":[],"outputs":[{"name":"","type":"address","internalType":"address"}],"stateMutability":"view"},{"type":"function","name":"proxiableUUID","inputs":[],"outputs":[{"name":"","type":"bytes32","internalType":"bytes32"}],"stateMutability":"view"},{"type":"function","name":"transferOwnership","inputs":[{"name":"newOwner","type":"address","internalType":"address"}],"outputs":[],"stateMutability":"nonpayable"},{"type":"function","name":"upgradeToAndCall","inputs":[{"name":"newImplementation","type":"address","internalType":"address"},{"name":"data","type":"bytes","internalType":"bytes"}],"outputs":[],"stateMutability":"payable"},{"type":"function","name":"validateUserOp","inputs":[{"name":"userOp","type":"tuple","internalType":"struct PackedUserOperation","components":[{"name":"sender","type":"address","internalType":"address"},{"name":"nonce","type":"uint256","internalType":"uint256"},{"name":"initCode","type":"bytes","internalType":"bytes"},{"name":"callData","type":"bytes","internalType":"bytes"},{"name":"accountGasLimits","type":"bytes32","internalType":"bytes32"},{"name":"preVerificationGas","type":"uint256","internalType":"uint256"},{"name":"gasFees","type":"bytes32","internalType":"bytes32"},{"name":"paymasterAndData","type":"bytes","internalType":"bytes"},{"name":"signature","type":"bytes","internalType":"bytes"}]},{"name":"userOpHash","type":"bytes32","internalType":"bytes32"},{"name":"missingAccountFunds","type":"uint256","internalType":"uint256"}],"outputs":[{"name":"validationData","type":"uint256","internalType":"uint256"}],"stateMutability":"nonpayable"},{"type":"function","name":"withdrawDepositTo","inputs":[{"name":"withdrawAddress","type":"address","internalType":"address payable"},{"name":"amount","type":"uint256","internalType":"uint256"}],"outputs":[],"stateMutability":"nonpayable"},{"type":"event","name":"Initialized","inputs":[{"name":"version","type":"uint64","indexed":false,"internalType":"uint64"}],"anonymous":false},{"type":"event","name":"OwnershipTransferred","inputs":[{"name":"previousOwner","type":"address","indexed":true,"internalType":"address"},{"name":"newOwner","type":"address","indexed":true,"internalType":"address"}],"anonymous":false},{"type":"event","name":"SmartAccountInitialized","inputs":[{"name":"entryPoint","type":"address","indexed":true,"internalType":"contract IEntryPoint"},{"name":"owner","type":"address","indexed":true,"internalType":"address"}],"anonymous":false},{"type":"event","name":"Upgraded","inputs":[{"name":"implementation","type":"address","indexed":true,"internalType":"address"}],"anonymous":false},{"type":"error","name":"AddressEmptyCode","inputs":[{"name":"target","type":"address","internalType":"address"}]},{"type":"error","name":"ECDSAInvalidSignature","inputs":[]},{"type":"error","name":"ECDSAInvalidSignatureLength","inputs":[{"name":"length","type":"uint256","internalType":"uint256"}]},{"type":"error","name":"ECDSAInvalidSignatureS","inputs":[{"name":"s","type":"bytes32","internalType":"bytes32"}]},{"type":"error","name":"ERC1967InvalidImplementation","inputs":[{"name":"implementation","type":"address","internalType":"address"}]},{"type":"error","name":"ERC1967NonPayable","inputs":[]},{"type":"error","name":"FailedCall","inputs":[]},{"type":"error","name":"InvalidInitialization","inputs":[]},{"type":"error","name":"NotAuthorized","inputs":[]},{"type":"error","name":"NotEntryPoint","inputs":[]},{"type":"error","name":"NotInitializing","inputs":[]},{"type":"error","name":"NotOwnerOrEntryPoint","inputs":[]},{"type":"error","name":"UUPSUnauthorizedCallContext","inputs":[]},{"type":"error","name":"UUPSUnsupportedProxiableUUID","inputs":[{"name":"slot","type":"bytes32","internalType":"bytes32"}]},{"type":"error","name":"WrongArrayLengths","inputs":[]}],"bytecode":{"object":"0x60c0346100af57601f6110c538819003918201601f19168301916001600160401b038311848410176100b3578084926020946040528339810103126100af57516001600160a01b03811681036100af573060805260a052604051610ffd90816100c882396080518181816104f00152610618015260a05181818161012f015281816102fa015281816103a4015281816106f7015281816107bb015281816109c601528181610bfe0152610cca0152f35b5f80fd5b634e487b7160e01b5f52604160045260245ffdfe6080604052600436101561001a575b3615610018575f80fd5b005b5f3560e01c806319822f7c146100f957806347e1da2a146100f45780634a58db19146100ef5780634d44560d146100ea5780634f1ef286146100e557806352d1902d146100e05780638da5cb5b146100db578063ad3cb1cc146100d6578063b0d691fe146100d1578063b61d27f6146100cc578063c399ec88146100c7578063c4d66de8146100c2578063d087d288146100bd5763f2fde38b0361000e57610a11565b610995565b610825565b610790565b610726565b6106e2565b610684565b61065d565b610606565b61049d565b610378565b6102ec565b6101e8565b346101b45760603660031901126101b4576004356001600160401b0381116101b45761012060031982360301126101b4576044357f00000000000000000000000000000000000000000000000000000000000000006001600160a01b031633036101a5576101706101889260243590600401610b52565b908061018c575b506040519081529081906020820190565b0390f35b5f80808093338219f15061019e610bcc565b505f610177565b636b31ba1560e11b5f5260045ffd5b5f80fd5b9181601f840112156101b4578235916001600160401b0383116101b4576020808501948460051b0101116101b457565b346101b45760603660031901126101b4576004356001600160401b0381116101b4576102189036906004016101b8565b906024356001600160401b0381116101b4576102389036906004016101b8565b9190926044356001600160401b0381116101b45761025a9036906004016101b8565b919092610265610bfb565b8282148015906102e2575b6102d3575f5b82811061027f57005b61028a818484610ae0565b359061029582610367565b6102a081888a610ae0565b3591858210156102ce576001926102c8916102c08460051b8a018a610af0565b929091610c57565b01610276565b610acc565b639e63483b60e01b5f5260045ffd5b5084821415610270565b5f5f6003193601126101b4577f00000000000000000000000000000000000000000000000000000000000000006001600160a01b0316803b156101b4575f6024916040519283809263b760faf960e01b825230600483015234905af1801561036257610356575080f35b61001891505f90610426565b610b22565b6001600160a01b038116036101b457565b346101b4575f60403660031901126101b45760043561039681610367565b602435906103a2610c88565b7f00000000000000000000000000000000000000000000000000000000000000006001600160a01b031691823b156101b45760405163040b850f60e31b81526001600160a01b0390921660048301526024820152905f908290604490829084905af1801561036257610356575080f35b634e487b7160e01b5f52604160045260245ffd5b90601f801991011681019081106001600160401b0382111761044757604052565b610412565b6001600160401b03811161044757601f01601f191660200190565b9291926104738261044c565b916104816040519384610426565b8294818452818301116101b4578281602093845f960137010152565b60403660031901126101b4576004356104b581610367565b6024356001600160401b0381116101b457366023820112156101b4576104e5903690602481600401359101610467565b906001600160a01b037f0000000000000000000000000000000000000000000000000000000000000000163081149081156105e4575b506105d557610528610c88565b6040516352d1902d60e01b8152916020836004816001600160a01b0386165afa5f93816105a4575b5061057157634c9c8ce360e01b5f526001600160a01b03821660045260245ffd5b905f516020610f885f395f51905f528303610590576100189250610d11565b632a87526960e21b5f52600483905260245ffd5b6105c791945060203d6020116105ce575b6105bf8183610426565b810190610b43565b925f610550565b503d6105b5565b63703e46dd60e11b5f5260045ffd5b5f516020610f885f395f51905f52546001600160a01b0316141590505f61051b565b346101b4575f3660031901126101b4577f00000000000000000000000000000000000000000000000000000000000000006001600160a01b031630036105d55760206040515f516020610f885f395f51905f528152f35b346101b4575f3660031901126101b4575f546040516001600160a01b039091168152602090f35b346101b4575f3660031901126101b45760408051906106a38183610426565b600582526020820191640352e302e360dc1b83528151928391602083525180918160208501528484015e5f828201840152601f01601f19168101030190f35b346101b4575f3660031901126101b4576040517f00000000000000000000000000000000000000000000000000000000000000006001600160a01b03168152602090f35b346101b45760603660031901126101b45760043561074381610367565b602435604435916001600160401b0383116101b457366023840112156101b4578260040135916001600160401b0383116101b45736602484860101116101b4576024610018940191610b2d565b346101b4575f3660031901126101b4576040516370a0823160e01b81523060048201526020816024817f00000000000000000000000000000000000000000000000000000000000000006001600160a01b03165afa801561036257610188915f9161080657506040519081529081906020820190565b61081f915060203d6020116105ce576105bf8183610426565b5f610177565b346101b45760203660031901126101b45760043561084281610367565b5f516020610fa85f395f51905f5254906001600160401b0361087360ff604085901c1615936001600160401b031690565b168015908161098d575b6001149081610983575b15908161097a575b5061096b576108d290826108c960016001600160401b03195f516020610fa85f395f51905f525416175f516020610fa85f395f51905f5255565b61093157610caa565b6108d857005b61090260ff60401b195f516020610fa85f395f51905f5254165f516020610fa85f395f51905f5255565b604051600181527fc7f505b2f371ae2175ee4913f4499e1f2633a7b5936321eed1cdaeb6115181d290602090a1005b6109666801000000000000000060ff60401b195f516020610fa85f395f51905f525416175f516020610fa85f395f51905f5255565b610caa565b63f92ee8a960e01b5f5260045ffd5b9050155f61088f565b303b159150610887565b83915061087d565b346101b4575f3660031901126101b457604051631aab3f0d60e11b81523060048201525f60248201526020816044817f00000000000000000000000000000000000000000000000000000000000000006001600160a01b03165afa801561036257610188915f9161080657506040519081529081906020820190565b346101b45760203660031901126101b457600435610a2e81610367565b610a36610c88565b6001600160a01b03168015610a87575f80546001600160a01b03198116831782556001600160a01b0316907f8be0079c531659141344cd1fd0a4f28419497f9722a3daafe3b4186f6b6457e09080a3005b60405162461bcd60e51b815260206004820152601960248201527f6e6577206f776e6572206973207a65726f2061646472657373000000000000006044820152606490fd5b634e487b7160e01b5f52603260045260245ffd5b91908110156102ce5760051b0190565b903590601e19813603018212156101b457018035906001600160401b0382116101b4576020019181360383136101b457565b6040513d5f823e3d90fd5b90610b41939291610b3c610bfb565b610c57565b565b908160209103126101b4575190565b907f19457468657265756d205369676e6564204d6573736167653a0a3332000000005f52601c52610bb5610bac603c5f20610ba6610b9f60018060a01b035f541695610100810190610af0565b3691610467565b90610db3565b90929192610e0b565b6001600160a01b031603610bc7575f90565b600190565b3d15610bf6573d90610bdd8261044c565b91610beb6040519384610426565b82523d5f602084013e565b606090565b337f00000000000000000000000000000000000000000000000000000000000000006001600160a01b0316141580610c43575b610c3457565b63142888bd60e21b5f5260045ffd5b505f546001600160a01b0316331415610c2e565b90925f938493826040519384928337810185815203925af1610c77610bcc565b9015610c805750565b602081519101fd5b5f546001600160a01b03163303610c9b57565b63ea8e4eb560e01b5f5260045ffd5b5f80546001600160a01b0319166001600160a01b039283169081178255917f000000000000000000000000000000000000000000000000000000000000000016907fb7053def2fe3d2a5ecb12939fbfcc30f59b5f3efabd9addbe6537fbea7c273989080a3565b90813b15610d92575f516020610f885f395f51905f5280546001600160a01b0319166001600160a01b0384169081179091557fbc7cd75a20ee27fd9adebab32041f755214dbc6bffa90cc0225b39da2e5c2d3b5f80a2805115610d7a57610d7791610e87565b50565b505034610d8357565b63b398979f60e01b5f5260045ffd5b50634c9c8ce360e01b5f9081526001600160a01b0391909116600452602490fd5b8151919060418303610de357610ddc9250602082015190606060408401519301515f1a90610ea7565b9192909190565b50505f9160029190565b60041115610df757565b634e487b7160e01b5f52602160045260245ffd5b610e1481610ded565b80610e1d575050565b610e2681610ded565b60018103610e3d5763f645eedf60e01b5f5260045ffd5b610e4681610ded565b60028103610e61575063fce698f760e01b5f5260045260245ffd5b80610e6d600392610ded565b14610e755750565b6335e2f38360e21b5f5260045260245ffd5b5f80610ea493602081519101845af4610e9e610bcc565b91610f29565b90565b91907f7fffffffffffffffffffffffffffffff5d576e7357a4501ddfe92f46681b20a08411610f1e579160209360809260ff5f9560405194855216868401526040830152606082015282805260015afa15610362575f516001600160a01b03811615610f1457905f905f90565b505f906001905f90565b5050505f9160039190565b90610f4d5750805115610f3e57805190602001fd5b63d6bda27560e01b5f5260045ffd5b81511580610f7e575b610f5e575090565b639996b31560e01b5f9081526001600160a01b0391909116600452602490fd5b50803b15610f5656fe360894a13ba1a3210667c828492db98dca3e2076cc3735a920a3ca505d382bbcf0c57e16840df040f15088dc2f81fe391c3923bec73e23a9662efc9c229c6a00a26469706673582212208ac232df5bd4c3d6ce2c814dcd672395695d9b32d616a8bc02f18eb35daa91ec64736f6c634300081c0033","linkReferences":{}},"methodIdentifiers":{"UPGRADE_INTERFACE_VERSION()":"ad3cb1cc","addDeposit()":"4a58db19","entryPoint()":"b0d691fe","execute(address,uint256,bytes)":"b61d27f6","executeBatch(address[],uint256[],bytes[])":"47e1da2a","getDeposit()":"c399ec88","getNonce()":"d087d288","initialize(address)":"c4d66de8","owner()":"8da5cb5b","proxiableUUID()":"52d1902d","transferOwnership(address)":"f2fde38b","upgradeToAndCall(address,bytes)":"4f1ef286","validateUserOp((address,uint256,bytes,bytes,bytes32,uint256,bytes32,bytes,bytes),bytes32,uint256)":"19822f7c","withdrawDepositTo(address,uint256)":"4d44560d"},"id":65}