{"abi":[{"type":"constructor","inputs":[{"name":"ePoint","type":"address","internalType":"contract IEntryPoint"}],"stateMutability":"nonpayable"},{"type":"receive","stateMutability":"payable"},{"type":"function","name":"UPGRADE_INTERFACE_VERSION","inputs":[],"outputs":[{"name":"","type":"string","internalType":"string"}],"stateMutability":"view"},{"type":"function","name":"addDeposit","inputs":[],"outputs":[],"stateMutability":"payable"},{"type":"function","name":"entryPoint","inputs":[],"outputs":[{"name":"","type":"address","internalType":"contract IEntryPoint"}],"stateMutability":"view"},{"type":"function","name":"execute","inputs":[{"name":"dest","type":"address","internalType":"address"},{"name":"value","type":"uint256","internalType":"uint256"},{"name":"data","type":"bytes","internalType":"bytes"}],"outputs":[],"stateMutability":"nonpayable"},{"type":"function","name":"executeBatch","inputs":[{"name":"calls","type":"tuple[]","internalType":"struct BaseAccount.Call[]","components":[{"name":"target","type":"address","internalType":"address"},{"name":"value","type":"uint256","internalType":"uint256"},{"name":"data","type":"bytes","internalType":"bytes"}]}],"outputs":[],"stateMutability":"nonpayable"},{"type":"function","name":"executeBatch","inputs":[{"name":"dest","type":"address[]","internalType":"address[]"},{"name":"value","type":"uint256[]","internalType":"uint256[]"},{"name":"func","type":"bytes[]","internalType":"bytes[]"}],"outputs":[],"stateMutability":"nonpayable"},{"type":"function","name":"getDeposit","inputs":[],"outputs":[{"name":"","type":"uint256","internalType":"uint256"}],"stateMutability":"view"},{"type":"function","name":"getNonce","inputs":[],"outputs":[{"name":"","type":"uint256","internalType":"uint256"}],"stateMutability":"view"},{"type":"function","name":"initialize","inputs":[{"name":"anOwner","type":"address","internalType":"address"}],"outputs":[],"stateMutability":"nonpayable"},{"type":"function","name":"owner","inputs":[],"outputs":[{"name":"","type":"address","internalType":"address"}],"stateMutability":"view"},{"type":"function","name":"proxiableUUID","inputs":[],"outputs":[{"name":"","type":"bytes32","internalType":"bytes32"}],"stateMutability":"view"},{"type":"function","name":"transferOwnership","inputs":[{"name":"newOwner","type":"address","internalType":"address"}],"outputs":[],"stateMutability":"nonpayable"},{"type":"function","name":"upgradeToAndCall","inputs":[{"name":"newImplementation","type":"address","internalType":"address"},{"name":"data","type":"bytes","internalType":"bytes"}],"outputs":[],"stateMutability":"payable"},{"type":"function","name":"validateUserOp","inputs":[{"name":"userOp","type":"tuple","internalType":"struct PackedUserOperation","components":[{"name":"sender","type":"address","internalType":"address"},{"name":"nonce","type":"uint256","internalType":"uint256"},{"name":"initCode","type":"bytes","internalType":"bytes"},{"name":"callData","type":"bytes","internalType":"bytes"},{"name":"accountGasLimits","type":"bytes32","internalType":"bytes32"},{"name":"preVerificationGas","type":"uint256","internalType":"uint256"},{"name":"gasFees","type":"bytes32","internalType":"bytes32"},{"name":"paymasterAndData","type":"bytes","internalType":"bytes"},{"name":"signature","type":"bytes","internalType":"bytes"}]},{"name":"userOpHash","type":"bytes32","internalType":"bytes32"},{"name":"missingAccountFunds","type":"uint256","internalType":"uint256"}],"outputs":[{"name":"validationData","type":"uint256","internalType":"uint256"}],"stateMutability":"nonpayable"},{"type":"function","name":"withdrawDepositTo","inputs":[{"name":"withdrawAddress","type":"address","internalType":"address payable"},{"name":"amount","type":"uint256","internalType":"uint256"}],"outputs":[],"stateMutability":"nonpayable"},{"type":"event","name":"Initialized","inputs":[{"name":"version","type":"uint64","indexed":false,"internalType":"uint64"}],"anonymous":false},{"type":"event","name":"OwnershipTransferred","inputs":[{"name":"previousOwner","type":"address","indexed":true,"internalType":"address"},{"name":"newOwner","type":"address","indexed":true,"internalType":"address"}],"anonymous":false},{"type":"event","name":"SmartAccountInitialized","inputs":[{"name":"entryPoint","type":"address","indexed":true,"internalType":"contract IEntryPoint"},{"name":"owner","type":"address","indexed":true,"internalType":"address"}],"anonymous":false},{"type":"event","name":"Upgraded","inputs":[{"name":"implementation","type":"address","indexed":true,"internalType":"address"}],"anonymous":false},{"type":"error","name":"AddressEmptyCode","inputs":[{"name":"target","type":"address","internalType":"address"}]},{"type":"error","name":"ECDSAInvalidSignature","inputs":[]},{"type":"error","name":"ECDSAInvalidSignatureLength","inputs":[{"name":"length","type":"uint256","internalType":"uint256"}]},{"type":"error","name":"ECDSAInvalidSignatureS","inputs":[{"name":"s","type":"bytes32","internalType":"bytes32"}]},{"type":"error","name":"ERC1967InvalidImplementation","inputs":[{"name":"implementation","type":"address","internalType":"address"}]},{"type":"error","name":"ERC1967NonPayable","inputs":[]},{"type":"error","name":"ExecuteError","inputs":[{"name":"index","type":"uint256","internalType":"uint256"},{"name":"error","type":"bytes","internalType":"bytes"}]},{"type":"error","name":"FailedCall","inputs":[]},{"type":"error","name":"InvalidInitialization","inputs":[]},{"type":"error","name":"NotAuthorized","inputs":[]},{"type":"error","name":"NotEntryPoint","inputs":[]},{"type":"error","name":"NotInitializing","inputs":[]},{"type":"error","name":"NotOwnerOrEntryPoint","inputs":[]},{"type":"error","name":"UUPSUnauthorizedCallContext","inputs":[]},{"type":"error","name":"UUPSUnsupportedProxiableUUID","inputs":[{"name":"slot","type":"bytes32","internalType":"bytes32"}]},{"type":"error","name":"WrongArrayLengths","inputs":[]}],"bytecode":{"object":"0x60c06040523073ffffffffffffffffffffffffffffffffffffffff1660809073ffffffffffffffffffffffffffffffffffffffff16815250348015610042575f5ffd5b5060405161276d38038061276d8339818101604052810190610064919061010d565b8073ffffffffffffffffffffffffffffffffffffffff1660a08173ffffffffffffffffffffffffffffffffffffffff168152505050610138565b5f5ffd5b5f73ffffffffffffffffffffffffffffffffffffffff82169050919050565b5f6100cb826100a2565b9050919050565b5f6100dc826100c1565b9050919050565b6100ec816100d2565b81146100f6575f5ffd5b50565b5f81519050610107816100e3565b92915050565b5f602082840312156101225761012161009e565b5b5f61012f848285016100f9565b91505092915050565b60805160a0516125ff61016e5f395f8181610731015261128701525f8181610f5401528181610fa9015261116301526125ff5ff3fe6080604052600436106100eb575f3560e01c80638da5cb5b11610089578063c399ec8811610058578063c399ec88146102a0578063c4d66de8146102ca578063d087d288146102f2578063f2fde38b1461031c576100f2565b80638da5cb5b146101fa578063ad3cb1cc14610224578063b0d691fe1461024e578063b61d27f614610278576100f2565b80634a58db19116100c55780634a58db19146101825780634d44560d1461018c5780634f1ef286146101b457806352d1902d146101d0576100f2565b806319822f7c146100f657806334fcd5be1461013257806347e1da2a1461015a576100f2565b366100f257005b5f5ffd5b348015610101575f5ffd5b5061011c600480360381019061011791906119ac565b610344565b6040516101299190611a27565b60405180910390f35b34801561013d575f5ffd5b5061015860048036038101906101539190611aa1565b610376565b005b348015610165575f5ffd5b50610180600480360381019061017b9190611beb565b6104a6565b005b61018a610595565b005b348015610197575f5ffd5b506101b260048036038101906101ad9190611cf5565b610606565b005b6101ce60048036038101906101c99190611ea6565b610681565b005b3480156101db575f5ffd5b506101e46106a0565b6040516101f19190611f0f565b60405180910390f35b348015610205575f5ffd5b5061020e6106d1565b60405161021b9190611f37565b60405180910390f35b34801561022f575f5ffd5b506102386106f5565b6040516102459190611fb0565b60405180910390f35b348015610259575f5ffd5b5061026261072e565b60405161026f919061202b565b60405180910390f35b348015610283575f5ffd5b5061029e60048036038101906102999190612099565b610755565b005b3480156102ab575f5ffd5b506102b461076f565b6040516102c19190611a27565b60405180910390f35b3480156102d5575f5ffd5b506102f060048036038101906102eb919061210a565b6107f4565b005b3480156102fd575f5ffd5b50610306610975565b6040516103139190611a27565b60405180910390f35b348015610327575f5ffd5b50610342600480360381019061033d919061210a565b6109fc565b005b5f61034d610b33565b6103578484610ba1565b90506103668460200135610c7a565b61036f82610c7d565b9392505050565b61037e610d14565b5f8282905090505f5f90505b818110156104a057368484838181106103a6576103a5612135565b5b90506020028101906103b8919061216e565b90505f61042d825f0160208101906103d0919061210a565b83602001358480604001906103e59190612195565b8080601f0160208091040260200160405190810160405280939291908181526020018383808284375f81840152601f19601f820116905080830192505050505050505a610d1e565b905080610491576001840361044957610444610d35565b610490565b826104535f610d48565b6040517f5a154675000000000000000000000000000000000000000000000000000000008152600401610487929190612249565b60405180910390fd5b5b5050808060010191505061038a565b50505050565b6104ae610d80565b81819050868690501415806104c95750838390508686905014155b15610500576040517f9e63483b00000000000000000000000000000000000000000000000000000000815260040160405180910390fd5b5f5f90505b8686905081101561058c5761057f87878381811061052657610525612135565b5b905060200201602081019061053b919061210a565b86868481811061054e5761054d612135565b5b9050602002013585858581811061056857610567612135565b5b905060200281019061057a9190612195565b610e48565b8080600101915050610505565b50505050505050565b61059d61072e565b73ffffffffffffffffffffffffffffffffffffffff1663b760faf934306040518363ffffffff1660e01b81526004016105d69190611f37565b5f604051808303818588803b1580156105ed575f5ffd5b505af11580156105ff573d5f5f3e3d5ffd5b5050505050565b61060e610ecb565b61061661072e565b73ffffffffffffffffffffffffffffffffffffffff1663205c287883836040518363ffffffff1660e01b8152600401610650929190612286565b5f604051808303815f87803b158015610667575f5ffd5b505af1158015610679573d5f5f3e3d5ffd5b505050505050565b610689610f52565b61069282611038565b61069c8282611043565b5050565b5f6106a9611161565b7f360894a13ba1a3210667c828492db98dca3e2076cc3735a920a3ca505d382bbc5f1b905090565b5f5f9054906101000a900473ffffffffffffffffffffffffffffffffffffffff1681565b6040518060400160405280600581526020017f352e302e3000000000000000000000000000000000000000000000000000000081525081565b5f7f0000000000000000000000000000000000000000000000000000000000000000905090565b61075d610d80565b61076984848484610e48565b50505050565b5f61077861072e565b73ffffffffffffffffffffffffffffffffffffffff166370a08231306040518263ffffffff1660e01b81526004016107b09190611f37565b602060405180830381865afa1580156107cb573d5f5f3e3d5ffd5b505050506040513d601f19601f820116820180604052508101906107ef91906122c1565b905090565b5f6107fd6111e8565b90505f815f0160089054906101000a900460ff161590505f825f015f9054906101000a900467ffffffffffffffff1690505f5f8267ffffffffffffffff161480156108455750825b90505f60018367ffffffffffffffff1614801561087857505f3073ffffffffffffffffffffffffffffffffffffffff163b145b905081158015610886575080155b156108bd576040517ff92ee8a900000000000000000000000000000000000000000000000000000000815260040160405180910390fd5b6001855f015f6101000a81548167ffffffffffffffff021916908367ffffffffffffffff160217905550831561090a576001855f0160086101000a81548160ff0219169083151502179055505b6109138661120f565b831561096d575f855f0160086101000a81548160ff0219169083151502179055507fc7f505b2f371ae2175ee4913f4499e1f2633a7b5936321eed1cdaeb6115181d260016040516109649190612338565b60405180910390a15b505050505050565b5f61097e61072e565b73ffffffffffffffffffffffffffffffffffffffff166335567e1a305f6040518363ffffffff1660e01b81526004016109b89291906123ad565b602060405180830381865afa1580156109d3573d5f5f3e3d5ffd5b505050506040513d601f19601f820116820180604052508101906109f791906122c1565b905090565b610a04610ecb565b5f73ffffffffffffffffffffffffffffffffffffffff168173ffffffffffffffffffffffffffffffffffffffff1603610a72576040517f08c379a0000000000000000000000000000000000000000000000000000000008152600401610a699061241e565b60405180910390fd5b5f5f5f9054906101000a900473ffffffffffffffffffffffffffffffffffffffff169050815f5f6101000a81548173ffffffffffffffffffffffffffffffffffffffff021916908373ffffffffffffffffffffffffffffffffffffffff1602179055508173ffffffffffffffffffffffffffffffffffffffff168173ffffffffffffffffffffffffffffffffffffffff167f8be0079c531659141344cd1fd0a4f28419497f9722a3daafe3b4186f6b6457e060405160405180910390a35050565b610b3b61072e565b73ffffffffffffffffffffffffffffffffffffffff163373ffffffffffffffffffffffffffffffffffffffff1614610b9f576040517fd663742a00000000000000000000000000000000000000000000000000000000815260040160405180910390fd5b565b5f5f610bac836112eb565b9050610c1384806101000190610bc29190612195565b8080601f0160208091040260200160405190810160405280939291908181526020018383808284375f81840152601f19601f820116905080830192505050505050508261131e90919063ffffffff16565b73ffffffffffffffffffffffffffffffffffffffff165f5f9054906101000a900473ffffffffffffffffffffffffffffffffffffffff1673ffffffffffffffffffffffffffffffffffffffff1614610c6f576001915050610c74565b5f9150505b92915050565b50565b5f8114610d11575f3373ffffffffffffffffffffffffffffffffffffffff16827fffffffffffffffffffffffffffffffffffffffffffffffffffffffffffffffff90604051610ccb90612469565b5f60405180830381858888f193505050503d805f8114610d06576040519150601f19603f3d011682016040523d82523d5f602084013e610d0b565b606091505b50509050505b50565b610d1c610b33565b565b5f5f5f845160208601878987f19050949350505050565b610d46610d415f610d48565b611348565b565b60603d5f831115610d605782811115610d5f578290505b5b604051602082018101604052818152815f602083013e8092505050919050565b610d8861072e565b73ffffffffffffffffffffffffffffffffffffffff163373ffffffffffffffffffffffffffffffffffffffff1614158015610e0f57505f5f9054906101000a900473ffffffffffffffffffffffffffffffffffffffff1673ffffffffffffffffffffffffffffffffffffffff163373ffffffffffffffffffffffffffffffffffffffff1614155b15610e46576040517f50a222f400000000000000000000000000000000000000000000000000000000815260040160405180910390fd5b565b5f5f8573ffffffffffffffffffffffffffffffffffffffff16858585604051610e729291906124a1565b5f6040518083038185875af1925050503d805f8114610eac576040519150601f19603f3d011682016040523d82523d5f602084013e610eb1565b606091505b509150915081610ec357805160208201fd5b505050505050565b5f5f9054906101000a900473ffffffffffffffffffffffffffffffffffffffff1673ffffffffffffffffffffffffffffffffffffffff163373ffffffffffffffffffffffffffffffffffffffff1614610f50576040517fea8e4eb500000000000000000000000000000000000000000000000000000000815260040160405180910390fd5b565b7f000000000000000000000000000000000000000000000000000000000000000073ffffffffffffffffffffffffffffffffffffffff163073ffffffffffffffffffffffffffffffffffffffff161480610fff57507f000000000000000000000000000000000000000000000000000000000000000073ffffffffffffffffffffffffffffffffffffffff16610fe6611350565b73ffffffffffffffffffffffffffffffffffffffff1614155b15611036576040517fe07c8dba00000000000000000000000000000000000000000000000000000000815260040160405180910390fd5b565b611040610ecb565b50565b8173ffffffffffffffffffffffffffffffffffffffff166352d1902d6040518163ffffffff1660e01b8152600401602060405180830381865afa9250505080156110ab57506040513d601f19601f820116820180604052508101906110a891906124cd565b60015b6110ec57816040517f4c9c8ce30000000000000000000000000000000000000000000000000000000081526004016110e39190611f37565b60405180910390fd5b7f360894a13ba1a3210667c828492db98dca3e2076cc3735a920a3ca505d382bbc5f1b811461115257806040517faa1d49a40000000000000000000000000000000000000000000000000000000081526004016111499190611f0f565b60405180910390fd5b61115c83836113a3565b505050565b7f000000000000000000000000000000000000000000000000000000000000000073ffffffffffffffffffffffffffffffffffffffff163073ffffffffffffffffffffffffffffffffffffffff16146111e6576040517fe07c8dba00000000000000000000000000000000000000000000000000000000815260040160405180910390fd5b565b5f7ff0c57e16840df040f15088dc2f81fe391c3923bec73e23a9662efc9c229c6a00905090565b805f5f6101000a81548173ffffffffffffffffffffffffffffffffffffffff021916908373ffffffffffffffffffffffffffffffffffffffff1602179055505f5f9054906101000a900473ffffffffffffffffffffffffffffffffffffffff1673ffffffffffffffffffffffffffffffffffffffff167f000000000000000000000000000000000000000000000000000000000000000073ffffffffffffffffffffffffffffffffffffffff167fb7053def2fe3d2a5ecb12939fbfcc30f59b5f3efabd9addbe6537fbea7c2739860405160405180910390a350565b5f7f19457468657265756d205369676e6564204d6573736167653a0a3332000000005f5281601c52603c5f209050919050565b5f5f5f5f61132c8686611415565b92509250925061133c828261146a565b82935050505092915050565b805160208201fd5b5f61137c7f360894a13ba1a3210667c828492db98dca3e2076cc3735a920a3ca505d382bbc5f1b6115cc565b5f015f9054906101000a900473ffffffffffffffffffffffffffffffffffffffff16905090565b6113ac826115d5565b8173ffffffffffffffffffffffffffffffffffffffff167fbc7cd75a20ee27fd9adebab32041f755214dbc6bffa90cc0225b39da2e5c2d3b60405160405180910390a25f8151111561140857611402828261169e565b50611411565b61141061171e565b5b5050565b5f5f5f6041845103611455575f5f5f602087015192506040870151915060608701515f1a90506114478882858561175a565b955095509550505050611463565b5f600285515f1b9250925092505b9250925092565b5f600381111561147d5761147c6124f8565b5b8260038111156114905761148f6124f8565b5b03156115c857600160038111156114aa576114a96124f8565b5b8260038111156114bd576114bc6124f8565b5b036114f4576040517ff645eedf00000000000000000000000000000000000000000000000000000000815260040160405180910390fd5b60026003811115611508576115076124f8565b5b82600381111561151b5761151a6124f8565b5b0361155f57805f1c6040517ffce698f70000000000000000000000000000000000000000000000000000000081526004016115569190611a27565b60405180910390fd5b600380811115611572576115716124f8565b5b826003811115611585576115846124f8565b5b036115c757806040517fd78bce0c0000000000000000000000000000000000000000000000000000000081526004016115be9190611f0f565b60405180910390fd5b5b5050565b5f819050919050565b5f8173ffffffffffffffffffffffffffffffffffffffff163b0361163057806040517f4c9c8ce30000000000000000000000000000000000000000000000000000000081526004016116279190611f37565b60405180910390fd5b8061165c7f360894a13ba1a3210667c828492db98dca3e2076cc3735a920a3ca505d382bbc5f1b6115cc565b5f015f6101000a81548173ffffffffffffffffffffffffffffffffffffffff021916908373ffffffffffffffffffffffffffffffffffffffff16021790555050565b60605f5f8473ffffffffffffffffffffffffffffffffffffffff16846040516116c79190612555565b5f60405180830381855af49150503d805f81146116ff576040519150601f19603f3d011682016040523d82523d5f602084013e611704565b606091505b5091509150611714858383611841565b9250505092915050565b5f341115611758576040517fb398979f00000000000000000000000000000000000000000000000000000000815260040160405180910390fd5b565b5f5f5f7f7fffffffffffffffffffffffffffffff5d576e7357a4501ddfe92f46681b20a0845f1c1115611796575f600385925092509250611837565b5f6001888888886040515f81526020016040526040516117b99493929190612586565b6020604051602081039080840390855afa1580156117d9573d5f5f3e3d5ffd5b5050506020604051035190505f73ffffffffffffffffffffffffffffffffffffffff168173ffffffffffffffffffffffffffffffffffffffff160361182a575f60015f5f1b93509350935050611837565b805f5f5f1b935093509350505b9450945094915050565b60608261185657611851826118ce565b6118c6565b5f825114801561187c57505f8473ffffffffffffffffffffffffffffffffffffffff163b145b156118be57836040517f9996b3150000000000000000000000000000000000000000000000000000000081526004016118b59190611f37565b60405180910390fd5b8190506118c7565b5b9392505050565b5f815111156118e05780518082602001fd5b6040517fd6bda27500000000000000000000000000000000000000000000000000000000815260040160405180910390fd5b5f604051905090565b5f5ffd5b5f5ffd5b5f5ffd5b5f610120828403121561193d5761193c611923565b5b81905092915050565b5f819050919050565b61195881611946565b8114611962575f5ffd5b50565b5f813590506119738161194f565b92915050565b5f819050919050565b61198b81611979565b8114611995575f5ffd5b50565b5f813590506119a681611982565b92915050565b5f5f5f606084860312156119c3576119c261191b565b5b5f84013567ffffffffffffffff8111156119e0576119df61191f565b5b6119ec86828701611927565b93505060206119fd86828701611965565b9250506040611a0e86828701611998565b9150509250925092565b611a2181611979565b82525050565b5f602082019050611a3a5f830184611a18565b92915050565b5f5ffd5b5f5ffd5b5f5ffd5b5f5f83601f840112611a6157611a60611a40565b5b8235905067ffffffffffffffff811115611a7e57611a7d611a44565b5b602083019150836020820283011115611a9a57611a99611a48565b5b9250929050565b5f5f60208385031215611ab757611ab661191b565b5b5f83013567ffffffffffffffff811115611ad457611ad361191f565b5b611ae085828601611a4c565b92509250509250929050565b5f5f83601f840112611b0157611b00611a40565b5b8235905067ffffffffffffffff811115611b1e57611b1d611a44565b5b602083019150836020820283011115611b3a57611b39611a48565b5b9250929050565b5f5f83601f840112611b5657611b55611a40565b5b8235905067ffffffffffffffff811115611b7357611b72611a44565b5b602083019150836020820283011115611b8f57611b8e611a48565b5b9250929050565b5f5f83601f840112611bab57611baa611a40565b5b8235905067ffffffffffffffff811115611bc857611bc7611a44565b5b602083019150836020820283011115611be457611be3611a48565b5b9250929050565b5f5f5f5f5f5f60608789031215611c0557611c0461191b565b5b5f87013567ffffffffffffffff811115611c2257611c2161191f565b5b611c2e89828a01611aec565b9650965050602087013567ffffffffffffffff811115611c5157611c5061191f565b5b611c5d89828a01611b41565b9450945050604087013567ffffffffffffffff811115611c8057611c7f61191f565b5b611c8c89828a01611b96565b92509250509295509295509295565b5f73ffffffffffffffffffffffffffffffffffffffff82169050919050565b5f611cc482611c9b565b9050919050565b611cd481611cba565b8114611cde575f5ffd5b50565b5f81359050611cef81611ccb565b92915050565b5f5f60408385031215611d0b57611d0a61191b565b5b5f611d1885828601611ce1565b9250506020611d2985828601611998565b9150509250929050565b5f611d3d82611c9b565b9050919050565b611d4d81611d33565b8114611d57575f5ffd5b50565b5f81359050611d6881611d44565b92915050565b5f5ffd5b5f601f19601f8301169050919050565b7f4e487b71000000000000000000000000000000000000000000000000000000005f52604160045260245ffd5b611db882611d72565b810181811067ffffffffffffffff82111715611dd757611dd6611d82565b5b80604052505050565b5f611de9611912565b9050611df58282611daf565b919050565b5f67ffffffffffffffff821115611e1457611e13611d82565b5b611e1d82611d72565b9050602081019050919050565b828183375f83830152505050565b5f611e4a611e4584611dfa565b611de0565b905082815260208101848484011115611e6657611e65611d6e565b5b611e71848285611e2a565b509392505050565b5f82601f830112611e8d57611e8c611a40565b5b8135611e9d848260208601611e38565b91505092915050565b5f5f60408385031215611ebc57611ebb61191b565b5b5f611ec985828601611d5a565b925050602083013567ffffffffffffffff811115611eea57611ee961191f565b5b611ef685828601611e79565b9150509250929050565b611f0981611946565b82525050565b5f602082019050611f225f830184611f00565b92915050565b611f3181611d33565b82525050565b5f602082019050611f4a5f830184611f28565b92915050565b5f81519050919050565b5f82825260208201905092915050565b8281835e5f83830152505050565b5f611f8282611f50565b611f8c8185611f5a565b9350611f9c818560208601611f6a565b611fa581611d72565b840191505092915050565b5f6020820190508181035f830152611fc88184611f78565b905092915050565b5f819050919050565b5f611ff3611fee611fe984611c9b565b611fd0565b611c9b565b9050919050565b5f61200482611fd9565b9050919050565b5f61201582611ffa565b9050919050565b6120258161200b565b82525050565b5f60208201905061203e5f83018461201c565b92915050565b5f5f83601f84011261205957612058611a40565b5b8235905067ffffffffffffffff81111561207657612075611a44565b5b60208301915083600182028301111561209257612091611a48565b5b9250929050565b5f5f5f5f606085870312156120b1576120b061191b565b5b5f6120be87828801611d5a565b94505060206120cf87828801611998565b935050604085013567ffffffffffffffff8111156120f0576120ef61191f565b5b6120fc87828801612044565b925092505092959194509250565b5f6020828403121561211f5761211e61191b565b5b5f61212c84828501611d5a565b91505092915050565b7f4e487b71000000000000000000000000000000000000000000000000000000005f52603260045260245ffd5b5f5ffd5b5f5ffd5b5f5ffd5b5f8235600160600383360303811261218957612188612162565b5b80830191505092915050565b5f5f833560016020038436030381126121b1576121b0612162565b5b80840192508235915067ffffffffffffffff8211156121d3576121d2612166565b5b6020830192506001820236038313156121ef576121ee61216a565b5b509250929050565b5f81519050919050565b5f82825260208201905092915050565b5f61221b826121f7565b6122258185612201565b9350612235818560208601611f6a565b61223e81611d72565b840191505092915050565b5f60408201905061225c5f830185611a18565b818103602083015261226e8184612211565b90509392505050565b61228081611cba565b82525050565b5f6040820190506122995f830185612277565b6122a66020830184611a18565b9392505050565b5f815190506122bb81611982565b92915050565b5f602082840312156122d6576122d561191b565b5b5f6122e3848285016122ad565b91505092915050565b5f819050919050565b5f67ffffffffffffffff82169050919050565b5f61232261231d612318846122ec565b611fd0565b6122f5565b9050919050565b61233281612308565b82525050565b5f60208201905061234b5f830184612329565b92915050565b5f819050919050565b5f77ffffffffffffffffffffffffffffffffffffffffffffffff82169050919050565b5f61239761239261238d84612351565b611fd0565b61235a565b9050919050565b6123a78161237d565b82525050565b5f6040820190506123c05f830185611f28565b6123cd602083018461239e565b9392505050565b7f6e6577206f776e6572206973207a65726f2061646472657373000000000000005f82015250565b5f612408601983611f5a565b9150612413826123d4565b602082019050919050565b5f6020820190508181035f830152612435816123fc565b9050919050565b5f81905092915050565b50565b5f6124545f8361243c565b915061245f82612446565b5f82019050919050565b5f61247382612449565b9150819050919050565b5f612488838561243c565b9350612495838584611e2a565b82840190509392505050565b5f6124ad82848661247d565b91508190509392505050565b5f815190506124c78161194f565b92915050565b5f602082840312156124e2576124e161191b565b5b5f6124ef848285016124b9565b91505092915050565b7f4e487b71000000000000000000000000000000000000000000000000000000005f52602160045260245ffd5b5f61252f826121f7565b612539818561243c565b9350612549818560208601611f6a565b80840191505092915050565b5f6125608284612525565b915081905092915050565b5f60ff82169050919050565b6125808161256b565b82525050565b5f6080820190506125995f830187611f00565b6125a66020830186612577565b6125b36040830185611f00565b6125c06060830184611f00565b9594505050505056fea26469706673582212205bb82d317c2075651ac938f7ce542178df0306af7b05889103c9203c819399e764736f6c634300081c0033","linkReferences":{}},"methodIdentifiers":{"UPGRADE_INTERFACE_VERSION()":"ad3cb1cc","addDeposit()":"4a58db19","entryPoint()":"b0d691fe","execute(address,uint256,bytes)":"b61d27f6","executeBatch((address,uint256,bytes)[])":"34fcd5be","executeBatch(address[],uint256[],bytes[])":"47e1da2a","getDeposit()":"c399ec88","getNonce()":"d087d288","initialize(address)":"c4d66de8","owner()":"8da5cb5b","proxiableUUID()":"52d1902d","transferOwnership(address)":"f2fde38b","upgradeToAndCall(address,bytes)":"4f1ef286","validateUserOp((address,uint256,bytes,bytes,bytes32,uint256,bytes32,bytes,bytes),bytes32,uint256)":"19822f7c","withdrawDepositTo(address,uint256)":"4d44560d"},"id":70}