{"abi":[{"type":"constructor","inputs":[{"name":"_entryPoint","type":"address","internalType":"contract IEntryPoint"},{"name":"_verifyingSigner","type":"address","internalType":"address"}],"stateMutability":"nonpayable"},{"type":"function","name":"addDeposit","inputs":[],"outputs":[],"stateMutability":"payable"},{"type":"function","name":"addStake","inputs":[{"name":"unstakeDelaySec","type":"uint32","internalType":"uint32"}],"outputs":[],"stateMutability":"payable"},{"type":"function","name":"deposit","inputs":[],"outputs":[],"stateMutability":"payable"},{"type":"function","name":"entryPoint","inputs":[],"outputs":[{"name":"","type":"address","internalType":"contract IEntryPoint"}],"stateMutability":"view"},{"type":"function","name":"getDeposit","inputs":[],"outputs":[{"name":"","type":"uint256","internalType":"uint256"}],"stateMutability":"view"},{"type":"function","name":"getHash","inputs":[{"name":"userOp","type":"tuple","internalType":"struct PackedUserOperation","components":[{"name":"sender","type":"address","internalType":"address"},{"name":"nonce","type":"uint256","internalType":"uint256"},{"name":"initCode","type":"bytes","internalType":"bytes"},{"name":"callData","type":"bytes","internalType":"bytes"},{"name":"accountGasLimits","type":"bytes32","internalType":"bytes32"},{"name":"preVerificationGas","type":"uint256","internalType":"uint256"},{"name":"gasFees","type":"bytes32","internalType":"bytes32"},{"name":"paymasterAndData","type":"bytes","internalType":"bytes"},{"name":"signature","type":"bytes","internalType":"bytes"}]},{"name":"validUntil","type":"uint48","internalType":"uint48"},{"name":"validAfter","type":"uint48","internalType":"uint48"}],"outputs":[{"name":"","type":"bytes32","internalType":"bytes32"}],"stateMutability":"view"},{"type":"function","name":"owner","inputs":[],"outputs":[{"name":"","type":"address","internalType":"address"}],"stateMutability":"view"},{"type":"function","name":"paymasterDeposit","inputs":[],"outputs":[{"name":"","type":"uint256","internalType":"uint256"}],"stateMutability":"view"},{"type":"function","name":"postOp","inputs":[{"name":"mode","type":"uint8","internalType":"enum IPaymaster.PostOpMode"},{"name":"context","type":"bytes","internalType":"bytes"},{"name":"actualGasCost","type":"uint256","internalType":"uint256"},{"name":"actualUserOpFeePerGas","type":"uint256","internalType":"uint256"}],"outputs":[],"stateMutability":"nonpayable"},{"type":"function","name":"renounceOwnership","inputs":[],"outputs":[],"stateMutability":"nonpayable"},{"type":"function","name":"transferOwnership","inputs":[{"name":"newOwner","type":"address","internalType":"address"}],"outputs":[],"stateMutability":"nonpayable"},{"type":"function","name":"unlockStake","inputs":[],"outputs":[],"stateMutability":"nonpayable"},{"type":"function","name":"validatePaymasterUserOp","inputs":[{"name":"userOp","type":"tuple","internalType":"struct PackedUserOperation","components":[{"name":"sender","type":"address","internalType":"address"},{"name":"nonce","type":"uint256","internalType":"uint256"},{"name":"initCode","type":"bytes","internalType":"bytes"},{"name":"callData","type":"bytes","internalType":"bytes"},{"name":"accountGasLimits","type":"bytes32","internalType":"bytes32"},{"name":"preVerificationGas","type":"uint256","internalType":"uint256"},{"name":"gasFees","type":"bytes32","internalType":"bytes32"},{"name":"paymasterAndData","type":"bytes","internalType":"bytes"},{"name":"signature","type":"bytes","internalType":"bytes"}]},{"name":"userOpHash","type":"bytes32","internalType":"bytes32"},{"name":"maxCost","type":"uint256","internalType":"uint256"}],"outputs":[{"name":"context","type":"bytes","internalType":"bytes"},{"name":"validationData","type":"uint256","internalType":"uint256"}],"stateMutability":"nonpayable"},{"type":"function","name":"verifyingSigner","inputs":[],"outputs":[{"name":"","type":"address","internalType":"address"}],"stateMutability":"view"},{"type":"function","name":"withdrawStake","inputs":[{"name":"withdrawAddress","type":"address","internalType":"address payable"}],"outputs":[],"stateMutability":"nonpayable"},{"type":"function","name":"withdrawTo","inputs":[{"name":"withdrawAddress","type":"address","internalType":"address payable"},{"name":"amount","type":"uint256","internalType":"uint256"}],"outputs":[],"stateMutability":"nonpayable"},{"type":"event","name":"OwnershipTransferred","inputs":[{"name":"previousOwner","type":"address","indexed":true,"internalType":"address"},{"name":"newOwner","type":"address","indexed":true,"internalType":"address"}],"anonymous":false},{"type":"error","name":"ECDSAInvalidSignature","inputs":[]},{"type":"error","name":"ECDSAInvalidSignatureLength","inputs":[{"name":"length","type":"uint256","internalType":"uint256"}]},{"type":"error","name":"ECDSAInvalidSignatureS","inputs":[{"name":"s","type":"bytes32","internalType":"bytes32"}]},{"type":"error","name":"OwnableInvalidOwner","inputs":[{"name":"owner","type":"address","internalType":"address"}]},{"type":"error","name":"OwnableUnauthorizedAccount","inputs":[{"name":"account","type":"address","internalType":"address"}]}],"bytecode":{"object":"0x60c080604052346101ae57604081610e90803803809161001f82856101d8565b8339810103126101ae5780516001600160a01b038116918282036101ae5760200151916001600160a01b03831683036101ae5733156101c5575f8054336001600160a01b031982168117835560405193602093859360249385939290916001600160a01b0316907f8be0079c531659141344cd1fd0a4f28419497f9722a3daafe3b4186f6b6457e09080a36301ffc9a760e01b825263122a0e9b60e31b60048301525afa9081156101ba575f9161017b575b50156101365760805260a052604051610c80908161021082396080518181816101b70152818161025b015281816102c80152818161056a01528181610602015281816106f40152818161076001526108aa015260a0518181816105160152610a150152f35b60405162461bcd60e51b815260206004820152601e60248201527f49456e747279506f696e7420696e74657266616365206d69736d6174636800006044820152606490fd5b90506020813d6020116101b2575b81610196602093836101d8565b810103126101ae575180151581036101ae575f6100d1565b5f80fd5b3d9150610189565b6040513d5f823e3d90fd5b631e4fbdf760e01b5f525f60045260245ffd5b601f909101601f19168101906001600160401b038211908210176101fb57604052565b634e487b7160e01b5f52604160045260245ffdfe60806040526004361015610011575f80fd5b5f5f3560e01c80630396cb60146105da578063205c28781461054557806323d9ac9b1461050057806337d0b0af1461016f5780634a58db191461015857806352b7512c1461047b5780635829c5f514610412578063715018a6146103b85780637c627b211461031e5780638da5cb5b146102f7578063b0d691fe146102b2578063bb9fe6bf1461023f578063c23a5cea14610192578063c399ec881461016f578063d0e30db0146101585763f2fde38b146100ca575f80fd5b34610155576020366003190112610155576004356001600160a01b03811690819003610153576100f8610882565b801561013f5781546001600160a01b03198116821783556001600160a01b03167f8be0079c531659141344cd1fd0a4f28419497f9722a3daafe3b4186f6b6457e08380a380f35b631e4fbdf760e01b82526004829052602482fd5b505b80fd5b50806003193601126101555761016c61075e565b80f35b5034610155578060031936011261015557602061018a6106d9565b604051908152f35b503461015557602036600319011261015557806101ad61067a565b6101b5610882565b7f00000000000000000000000000000000000000000000000000000000000000006001600160a01b031690813b1561023b5760405163611d2e7560e11b81526001600160a01b0390911660048201529082908290602490829084905af180156102305761021f5750f35b81610229916106a3565b6101555780f35b6040513d84823e3d90fd5b5050fd5b5034610155578060031936011261015557610258610882565b807f00000000000000000000000000000000000000000000000000000000000000006001600160a01b0316803b156102af5781809160046040518094819363bb9fe6bf60e01b83525af180156102305761021f5750f35b50fd5b50346101555780600319360112610155576040517f00000000000000000000000000000000000000000000000000000000000000006001600160a01b03168152602090f35b5034610155578060031936011261015557546040516001600160a01b039091168152602090f35b503461015557608036600319011261015557600360043510156101555760243567ffffffffffffffff8111610153573660238201121561015357806004013567ffffffffffffffff81116103b457369101602401116101555761037f6108a8565b60405162461bcd60e51b815260206004820152600d60248201526c6d757374206f7665727269646560981b6044820152606490fd5b8280fd5b50346101555780600319360112610155576103d1610882565b80546001600160a01b03198116825581906001600160a01b03167f8be0079c531659141344cd1fd0a4f28419497f9722a3daafe3b4186f6b6457e08280a380f35b50346101555760603660031901126101555760043567ffffffffffffffff8111610153576101206003198236030112610153576024359065ffffffffffff821682036103b4576044359265ffffffffffff8416840361015557602061018a8585856004016107db565b50346101555760603660031901126101555760043567ffffffffffffffff81116101535761012060031982360301126101535760206104ca6060926104be6108a8565b60443590600401610917565b604092919251948593604085528051938491826040880152018686015e8383018501526020830152601f01601f19168101030190f35b50346101555780600319360112610155576040517f00000000000000000000000000000000000000000000000000000000000000006001600160a01b03168152602090f35b5034610155576040366003190112610155578061056061067a565b610568610882565b7f00000000000000000000000000000000000000000000000000000000000000006001600160a01b031690813b1561023b5760405163040b850f60e31b81526001600160a01b03909116600482015260248035908201529082908290604490829084905af180156102305761021f5750f35b5060203660031901126106765760043563ffffffff811680910361067657610600610882565b7f00000000000000000000000000000000000000000000000000000000000000006001600160a01b031690813b15610676575f90602460405180948193621cb65b60e51b8352600483015234905af1801561066b5761065d575080f35b61066991505f906106a3565b005b6040513d5f823e3d90fd5b5f80fd5b600435906001600160a01b038216820361067657565b359065ffffffffffff8216820361067657565b90601f8019910116810190811067ffffffffffffffff8211176106c557604052565b634e487b7160e01b5f52604160045260245ffd5b6040516370a0823160e01b81523060048201526020816024817f00000000000000000000000000000000000000000000000000000000000000006001600160a01b03165afa90811561066b575f9161072f575090565b90506020813d602011610756575b8161074a602093836106a3565b81010312610676575190565b3d915061073d565b7f00000000000000000000000000000000000000000000000000000000000000006001600160a01b0316803b15610676575f6024916040519283809263b760faf960e01b825230600483015234905af1801561066b576107bb5750565b5f6107c5916106a3565b565b356001600160a01b03811681036106765790565b909165ffffffffffff90816107ef846107c7565b9460808501359460a060c082013591604051976020890199600180851b03168a52602082013560408a01526001600160801b03811660608a015260801c6080890152013560a08701526001600160801b03811660c087015260801c60e086015246610100860152306101208601521661014084015216610160820152610160815261087c610180826106a3565b51902090565b5f546001600160a01b0316330361089557565b63118cdaa760e01b5f523360045260245ffd5b7f00000000000000000000000000000000000000000000000000000000000000006001600160a01b031633036108da57565b60405162461bcd60e51b815260206004820152601560248201527414d95b99195c881b9bdd08115b9d1c9e541bda5b9d605a1b6044820152606490fd5b919060e0830135601e19843603018112156106765783019283359167ffffffffffffffff831161067657823603602086011361067657826054116106765761096160348601610690565b9261096e60548701610690565b956053198201906109808887876107db565b7f19457468657265756d205369676e6564204d6573736167653a0a3332000000005f52601c52603c5f2067ffffffffffffffff83116106c557604051916109d26034198601601f1916602001846106a3565b838352366020868301011161067657610a08946109ff9460745f9301602086013783016033190152610b1a565b90929192610b54565b6001600160a01b039081167f000000000000000000000000000000000000000000000000000000000000000090911603610add57610a446106d9565b10610a9857610a52906107c7565b926040519360018060a01b0316602085015260208452610a736040856106a3565b60a09190911b65ffffffffffff60a01b1660d09190911b6001600160d01b0319161790565b60405162461bcd60e51b815260206004820152601f60248201527f5061796d61737465723a20696e73756666696369656e74206465706f736974006044820152606490fd5b50506001919265ffffffffffff60d01b9060d01b169065ffffffffffff60a01b9060a01b16171790604051610b136020826106a3565b5f81529190565b8151919060418303610b4a57610b439250602082015190606060408401519301515f1a90610bc8565b9192909190565b50505f9160029190565b6004811015610bb45780610b66575050565b60018103610b7d5763f645eedf60e01b5f5260045ffd5b60028103610b98575063fce698f760e01b5f5260045260245ffd5b600314610ba25750565b6335e2f38360e21b5f5260045260245ffd5b634e487b7160e01b5f52602160045260245ffd5b91907f7fffffffffffffffffffffffffffffff5d576e7357a4501ddfe92f46681b20a08411610c3f579160209360809260ff5f9560405194855216868401526040830152606082015282805260015afa1561066b575f516001600160a01b03811615610c3557905f905f90565b505f906001905f90565b5050505f916003919056fea264697066735822122054219203adef6d42c175328fbe52c2566df5790ad24265808cd453e042533b0e64736f6c634300081c0033","linkReferences":{}},"methodIdentifiers":{"addDeposit()":"4a58db19","addStake(uint32)":"0396cb60","deposit()":"d0e30db0","entryPoint()":"b0d691fe","getDeposit()":"c399ec88","getHash((address,uint256,bytes,bytes,bytes32,uint256,bytes32,bytes,bytes),uint48,uint48)":"5829c5f5","owner()":"8da5cb5b","paymasterDeposit()":"37d0b0af","postOp(uint8,bytes,uint256,uint256)":"7c627b21","renounceOwnership()":"715018a6","transferOwnership(address)":"f2fde38b","unlockStake()":"bb9fe6bf","validatePaymasterUserOp((address,uint256,bytes,bytes,bytes32,uint256,bytes32,bytes,bytes),bytes32,uint256)":"52b7512c","verifyingSigner()":"23d9ac9b","withdrawStake(address)":"c23a5cea","withdrawTo(address,uint256)":"205c2878"},"id":63}