{"abi":[{"type":"constructor","inputs":[{"name":"_entryPoint","type":"address","internalType":"contract IEntryPoint"},{"name":"_verifyingSigner","type":"address","internalType":"address"}],"stateMutability":"nonpayable"},{"type":"function","name":"acceptOwnership","inputs":[],"outputs":[],"stateMutability":"nonpayable"},{"type":"function","name":"addDeposit","inputs":[],"outputs":[],"stateMutability":"payable"},{"type":"function","name":"addStake","inputs":[{"name":"unstakeDelaySec","type":"uint32","internalType":"uint32"}],"outputs":[],"stateMutability":"payable"},{"type":"function","name":"deposit","inputs":[],"outputs":[],"stateMutability":"payable"},{"type":"function","name":"entryPoint","inputs":[],"outputs":[{"name":"","type":"address","internalType":"contract IEntryPoint"}],"stateMutability":"view"},{"type":"function","name":"getDeposit","inputs":[],"outputs":[{"name":"","type":"uint256","internalType":"uint256"}],"stateMutability":"view"},{"type":"function","name":"getHash","inputs":[{"name":"userOp","type":"tuple","internalType":"struct PackedUserOperation","components":[{"name":"sender","type":"address","internalType":"address"},{"name":"nonce","type":"uint256","internalType":"uint256"},{"name":"initCode","type":"bytes","internalType":"bytes"},{"name":"callData","type":"bytes","internalType":"bytes"},{"name":"accountGasLimits","type":"bytes32","internalType":"bytes32"},{"name":"preVerificationGas","type":"uint256","internalType":"uint256"},{"name":"gasFees","type":"bytes32","internalType":"bytes32"},{"name":"paymasterAndData","type":"bytes","internalType":"bytes"},{"name":"signature","type":"bytes","internalType":"bytes"}]},{"name":"validUntil","type":"uint48","internalType":"uint48"},{"name":"validAfter","type":"uint48","internalType":"uint48"}],"outputs":[{"name":"","type":"bytes32","internalType":"bytes32"}],"stateMutability":"view"},{"type":"function","name":"owner","inputs":[],"outputs":[{"name":"","type":"address","internalType":"address"}],"stateMutability":"view"},{"type":"function","name":"paymasterDeposit","inputs":[],"outputs":[{"name":"","type":"uint256","internalType":"uint256"}],"stateMutability":"view"},{"type":"function","name":"pendingOwner","inputs":[],"outputs":[{"name":"","type":"address","internalType":"address"}],"stateMutability":"view"},{"type":"function","name":"postOp","inputs":[{"name":"mode","type":"uint8","internalType":"enum IPaymaster.PostOpMode"},{"name":"context","type":"bytes","internalType":"bytes"},{"name":"actualGasCost","type":"uint256","internalType":"uint256"},{"name":"actualUserOpFeePerGas","type":"uint256","internalType":"uint256"}],"outputs":[],"stateMutability":"nonpayable"},{"type":"function","name":"renounceOwnership","inputs":[],"outputs":[],"stateMutability":"nonpayable"},{"type":"function","name":"transferOwnership","inputs":[{"name":"newOwner","type":"address","internalType":"address"}],"outputs":[],"stateMutability":"nonpayable"},{"type":"function","name":"unlockStake","inputs":[],"outputs":[],"stateMutability":"nonpayable"},{"type":"function","name":"validatePaymasterUserOp","inputs":[{"name":"userOp","type":"tuple","internalType":"struct PackedUserOperation","components":[{"name":"sender","type":"address","internalType":"address"},{"name":"nonce","type":"uint256","internalType":"uint256"},{"name":"initCode","type":"bytes","internalType":"bytes"},{"name":"callData","type":"bytes","internalType":"bytes"},{"name":"accountGasLimits","type":"bytes32","internalType":"bytes32"},{"name":"preVerificationGas","type":"uint256","internalType":"uint256"},{"name":"gasFees","type":"bytes32","internalType":"bytes32"},{"name":"paymasterAndData","type":"bytes","internalType":"bytes"},{"name":"signature","type":"bytes","internalType":"bytes"}]},{"name":"userOpHash","type":"bytes32","internalType":"bytes32"},{"name":"maxCost","type":"uint256","internalType":"uint256"}],"outputs":[{"name":"context","type":"bytes","internalType":"bytes"},{"name":"validationData","type":"uint256","internalType":"uint256"}],"stateMutability":"nonpayable"},{"type":"function","name":"verifyingSigner","inputs":[],"outputs":[{"name":"","type":"address","internalType":"address"}],"stateMutability":"view"},{"type":"function","name":"withdrawStake","inputs":[{"name":"withdrawAddress","type":"address","internalType":"address payable"}],"outputs":[],"stateMutability":"nonpayable"},{"type":"function","name":"withdrawTo","inputs":[{"name":"withdrawAddress","type":"address","internalType":"address payable"},{"name":"amount","type":"uint256","internalType":"uint256"}],"outputs":[],"stateMutability":"nonpayable"},{"type":"event","name":"OwnershipTransferStarted","inputs":[{"name":"previousOwner","type":"address","indexed":true,"internalType":"address"},{"name":"newOwner","type":"address","indexed":true,"internalType":"address"}],"anonymous":false},{"type":"event","name":"OwnershipTransferred","inputs":[{"name":"previousOwner","type":"address","indexed":true,"internalType":"address"},{"name":"newOwner","type":"address","indexed":true,"internalType":"address"}],"anonymous":false},{"type":"error","name":"ECDSAInvalidSignature","inputs":[]},{"type":"error","name":"ECDSAInvalidSignatureLength","inputs":[{"name":"length","type":"uint256","internalType":"uint256"}]},{"type":"error","name":"ECDSAInvalidSignatureS","inputs":[{"name":"s","type":"bytes32","internalType":"bytes32"}]},{"type":"error","name":"OwnableInvalidOwner","inputs":[{"name":"owner","type":"address","internalType":"address"}]},{"type":"error","name":"OwnableUnauthorizedAccount","inputs":[{"name":"account","type":"address","internalType":"address"}]}],"bytecode":{"object":"0x60c060405234801561000f575f5ffd5b5060405161226c38038061226c8339818101604052810190610031919061039c565b81335f73ffffffffffffffffffffffffffffffffffffffff168173ffffffffffffffffffffffffffffffffffffffff16036100a3575f6040517f1e4fbdf700000000000000000000000000000000000000000000000000000000815260040161009a91906103e9565b60405180910390fd5b6100b28161013260201b60201c565b506100c28161016860201b60201c565b8073ffffffffffffffffffffffffffffffffffffffff1660808173ffffffffffffffffffffffffffffffffffffffff1681525050508073ffffffffffffffffffffffffffffffffffffffff1660a08173ffffffffffffffffffffffffffffffffffffffff1681525050505061052d565b60015f6101000a81549073ffffffffffffffffffffffffffffffffffffffff02191690556101658161024260201b60201c565b50565b8073ffffffffffffffffffffffffffffffffffffffff166301ffc9a77f989ccc58000000000000000000000000000000000000000000000000000000006040518263ffffffff1660e01b81526004016101c1919061043c565b602060405180830381865afa1580156101dc573d5f5f3e3d5ffd5b505050506040513d601f19601f82011682018060405250810190610200919061048a565b61023f576040517f08c379a00000000000000000000000000000000000000000000000000000000081526004016102369061050f565b60405180910390fd5b50565b5f5f5f9054906101000a900473ffffffffffffffffffffffffffffffffffffffff169050815f5f6101000a81548173ffffffffffffffffffffffffffffffffffffffff021916908373ffffffffffffffffffffffffffffffffffffffff1602179055508173ffffffffffffffffffffffffffffffffffffffff168173ffffffffffffffffffffffffffffffffffffffff167f8be0079c531659141344cd1fd0a4f28419497f9722a3daafe3b4186f6b6457e060405160405180910390a35050565b5f5ffd5b5f73ffffffffffffffffffffffffffffffffffffffff82169050919050565b5f61033082610307565b9050919050565b5f61034182610326565b9050919050565b61035181610337565b811461035b575f5ffd5b50565b5f8151905061036c81610348565b92915050565b61037b81610326565b8114610385575f5ffd5b50565b5f8151905061039681610372565b92915050565b5f5f604083850312156103b2576103b1610303565b5b5f6103bf8582860161035e565b92505060206103d085828601610388565b9150509250929050565b6103e381610326565b82525050565b5f6020820190506103fc5f8301846103da565b92915050565b5f7fffffffff0000000000000000000000000000000000000000000000000000000082169050919050565b61043681610402565b82525050565b5f60208201905061044f5f83018461042d565b92915050565b5f8115159050919050565b61046981610455565b8114610473575f5ffd5b50565b5f8151905061048481610460565b92915050565b5f6020828403121561049f5761049e610303565b5b5f6104ac84828501610476565b91505092915050565b5f82825260208201905092915050565b7f49456e747279506f696e7420696e74657266616365206d69736d6174636800005f82015250565b5f6104f9601e836104b5565b9150610504826104c5565b602082019050919050565b5f6020820190508181035f830152610526816104ed565b9050919050565b60805160a051611cd86105945f395f81816104bc0152610c8201525f818161039d01528181610430015281816104e10152818161057e0152818161078c015281816107b80152818161083d015281816108c7015281816109640152610b490152611cd85ff3fe608060405260043610610108575f3560e01c80637c627b2111610094578063c23a5cea11610063578063c23a5cea146102e5578063c399ec881461030d578063d0e30db014610337578063e30c397814610341578063f2fde38b1461036b57610108565b80637c627b21146102535780638da5cb5b1461027b578063b0d691fe146102a5578063bb9fe6bf146102cf57610108565b80634a58db19116100db5780634a58db19146101a457806352b7512c146101ae5780635829c5f5146101eb578063715018a61461022757806379ba50971461023d57610108565b80630396cb601461010c578063205c28781461012857806323d9ac9b1461015057806337d0b0af1461017a575b5f5ffd5b610126600480360381019061012191906112f1565b610393565b005b348015610133575f5ffd5b5061014e600480360381019061014991906113a9565b610426565b005b34801561015b575f5ffd5b506101646104ba565b6040516101719190611407565b60405180910390f35b348015610185575f5ffd5b5061018e6104de565b60405161019b919061142f565b60405180910390f35b6101ac61057c565b005b3480156101b9575f5ffd5b506101d460048036038101906101cf919061149e565b610606565b6040516101e292919061157a565b60405180910390f35b3480156101f6575f5ffd5b50610211600480360381019061020c91906115e3565b610628565b60405161021e919061165e565b60405180910390f35b348015610232575f5ffd5b5061023b6106a6565b005b348015610248575f5ffd5b506102516106b9565b005b34801561025e575f5ffd5b50610279600480360381019061027491906116fb565b610747565b005b348015610286575f5ffd5b5061028f610763565b60405161029c9190611407565b60405180910390f35b3480156102b0575f5ffd5b506102b961078a565b6040516102c691906117da565b60405180910390f35b3480156102da575f5ffd5b506102e36107ae565b005b3480156102f0575f5ffd5b5061030b600480360381019061030691906117f3565b610833565b005b348015610318575f5ffd5b506103216108c4565b60405161032e919061142f565b60405180910390f35b61033f610962565b005b34801561034c575f5ffd5b506103556109ec565b6040516103629190611407565b60405180910390f35b348015610376575f5ffd5b50610391600480360381019061038c9190611848565b610a14565b005b61039b610ac0565b7f000000000000000000000000000000000000000000000000000000000000000073ffffffffffffffffffffffffffffffffffffffff16630396cb6034836040518363ffffffff1660e01b81526004016103f59190611882565b5f604051808303818588803b15801561040c575f5ffd5b505af115801561041e573d5f5f3e3d5ffd5b505050505050565b61042e610ac0565b7f000000000000000000000000000000000000000000000000000000000000000073ffffffffffffffffffffffffffffffffffffffff1663205c287883836040518363ffffffff1660e01b81526004016104899291906118aa565b5f604051808303815f87803b1580156104a0575f5ffd5b505af11580156104b2573d5f5f3e3d5ffd5b505050505050565b7f000000000000000000000000000000000000000000000000000000000000000081565b5f7f000000000000000000000000000000000000000000000000000000000000000073ffffffffffffffffffffffffffffffffffffffff166370a08231306040518263ffffffff1660e01b81526004016105389190611407565b602060405180830381865afa158015610553573d5f5f3e3d5ffd5b505050506040513d601f19601f8201168201806040525081019061057791906118e5565b905090565b7f000000000000000000000000000000000000000000000000000000000000000073ffffffffffffffffffffffffffffffffffffffff1663b760faf934306040518363ffffffff1660e01b81526004016105d69190611407565b5f604051808303818588803b1580156105ed575f5ffd5b505af11580156105ff573d5f5f3e3d5ffd5b5050505050565b60605f610611610b47565b61061c858585610bd7565b91509150935093915050565b5f835f01602081019061063b9190611848565b846020013561064986610d7e565b61065287610d93565b8760a0013561066089610da8565b6106698a610dbd565b46308b8b6040516020016106879b9a9998979695949392919061191f565b6040516020818303038152906040528051906020012090509392505050565b6106ae610ac0565b6106b75f610dd2565b565b5f6106c2610e02565b90508073ffffffffffffffffffffffffffffffffffffffff166106e36109ec565b73ffffffffffffffffffffffffffffffffffffffff161461073b57806040517f118cdaa70000000000000000000000000000000000000000000000000000000081526004016107329190611407565b60405180910390fd5b61074481610dd2565b50565b61074f610b47565b61075c8585858585610e09565b5050505050565b5f5f5f9054906101000a900473ffffffffffffffffffffffffffffffffffffffff16905090565b7f000000000000000000000000000000000000000000000000000000000000000081565b6107b6610ac0565b7f000000000000000000000000000000000000000000000000000000000000000073ffffffffffffffffffffffffffffffffffffffff1663bb9fe6bf6040518163ffffffff1660e01b81526004015f604051808303815f87803b15801561081b575f5ffd5b505af115801561082d573d5f5f3e3d5ffd5b50505050565b61083b610ac0565b7f000000000000000000000000000000000000000000000000000000000000000073ffffffffffffffffffffffffffffffffffffffff1663c23a5cea826040518263ffffffff1660e01b815260040161089491906119c8565b5f604051808303815f87803b1580156108ab575f5ffd5b505af11580156108bd573d5f5f3e3d5ffd5b5050505050565b5f7f000000000000000000000000000000000000000000000000000000000000000073ffffffffffffffffffffffffffffffffffffffff166370a08231306040518263ffffffff1660e01b815260040161091e9190611407565b602060405180830381865afa158015610939573d5f5f3e3d5ffd5b505050506040513d601f19601f8201168201806040525081019061095d91906118e5565b905090565b7f000000000000000000000000000000000000000000000000000000000000000073ffffffffffffffffffffffffffffffffffffffff1663b760faf934306040518363ffffffff1660e01b81526004016109bc9190611407565b5f604051808303818588803b1580156109d3575f5ffd5b505af11580156109e5573d5f5f3e3d5ffd5b5050505050565b5f60015f9054906101000a900473ffffffffffffffffffffffffffffffffffffffff16905090565b610a1c610ac0565b8060015f6101000a81548173ffffffffffffffffffffffffffffffffffffffff021916908373ffffffffffffffffffffffffffffffffffffffff1602179055508073ffffffffffffffffffffffffffffffffffffffff16610a7b610763565b73ffffffffffffffffffffffffffffffffffffffff167f38d16b8cac22d99fc7c124b9cd0de2d3fa1faef420bfe791d8c362d765e2270060405160405180910390a350565b610ac8610e02565b73ffffffffffffffffffffffffffffffffffffffff16610ae6610763565b73ffffffffffffffffffffffffffffffffffffffff1614610b4557610b09610e02565b6040517f118cdaa7000000000000000000000000000000000000000000000000000000008152600401610b3c9190611407565b60405180910390fd5b565b7f000000000000000000000000000000000000000000000000000000000000000073ffffffffffffffffffffffffffffffffffffffff163373ffffffffffffffffffffffffffffffffffffffff1614610bd5576040517f08c379a0000000000000000000000000000000000000000000000000000000008152600401610bcc90611a3b565b60405180910390fd5b565b60605f5f5f365f610bf6898060e00190610bf19190611a65565b610e44565b93509350935093505f610c12610c0d8b8787610628565b610e91565b9050610c6a83838080601f0160208091040260200160405190810160405280939291908181526020018383808284375f81840152601f19601f8201169050808301925050505050505082610ec490919063ffffffff16565b73ffffffffffffffffffffffffffffffffffffffff167f000000000000000000000000000000000000000000000000000000000000000073ffffffffffffffffffffffffffffffffffffffff1614610ce657610cc860018686610eee565b60405180602001604052805f81525090965096505050505050610d76565b87610cef6104de565b1015610d30576040517f08c379a0000000000000000000000000000000000000000000000000000000008152600401610d2790611b11565b60405180910390fd5b895f016020810190610d429190611848565b604051602001610d529190611407565b604051602081830303815290604052610d6c5f8787610eee565b9650965050505050505b935093915050565b5f610d8c8260800135610f25565b9050919050565b5f610da18260800135610f42565b9050919050565b5f610db68260c00135610f25565b9050919050565b5f610dcb8260c00135610f42565b9050919050565b60015f6101000a81549073ffffffffffffffffffffffffffffffffffffffff0219169055610dff81610f51565b50565b5f33905090565b6040517f08c379a0000000000000000000000000000000000000000000000000000000008152600401610e3b90611b79565b60405180910390fd5b5f5f365f8585601490605492610e5c93929190611b9f565b810190610e699190611bd9565b809450819550505085856054908092610e8493929190611b9f565b9150915092959194509250565b5f7f19457468657265756d205369676e6564204d6573736167653a0a3332000000005f5281601c52603c5f209050919050565b5f5f5f5f610ed28686611012565b925092509250610ee28282611067565b82935050505092915050565b5f60d08265ffffffffffff16901b60a08465ffffffffffff16901b85610f14575f610f17565b60015b60ff16171790509392505050565b5f815f1c6fffffffffffffffffffffffffffffffff169050919050565b5f6080825f1c901c9050919050565b5f5f5f9054906101000a900473ffffffffffffffffffffffffffffffffffffffff169050815f5f6101000a81548173ffffffffffffffffffffffffffffffffffffffff021916908373ffffffffffffffffffffffffffffffffffffffff1602179055508173ffffffffffffffffffffffffffffffffffffffff168173ffffffffffffffffffffffffffffffffffffffff167f8be0079c531659141344cd1fd0a4f28419497f9722a3daafe3b4186f6b6457e060405160405180910390a35050565b5f5f5f6041845103611052575f5f5f602087015192506040870151915060608701515f1a9050611044888285856111c9565b955095509550505050611060565b5f600285515f1b9250925092505b9250925092565b5f600381111561107a57611079611c17565b5b82600381111561108d5761108c611c17565b5b03156111c557600160038111156110a7576110a6611c17565b5b8260038111156110ba576110b9611c17565b5b036110f1576040517ff645eedf00000000000000000000000000000000000000000000000000000000815260040160405180910390fd5b6002600381111561110557611104611c17565b5b82600381111561111857611117611c17565b5b0361115c57805f1c6040517ffce698f7000000000000000000000000000000000000000000000000000000008152600401611153919061142f565b60405180910390fd5b60038081111561116f5761116e611c17565b5b82600381111561118257611181611c17565b5b036111c457806040517fd78bce0c0000000000000000000000000000000000000000000000000000000081526004016111bb919061165e565b60405180910390fd5b5b5050565b5f5f5f7f7fffffffffffffffffffffffffffffff5d576e7357a4501ddfe92f46681b20a0845f1c1115611205575f6003859250925092506112a6565b5f6001888888886040515f81526020016040526040516112289493929190611c5f565b6020604051602081039080840390855afa158015611248573d5f5f3e3d5ffd5b5050506020604051035190505f73ffffffffffffffffffffffffffffffffffffffff168173ffffffffffffffffffffffffffffffffffffffff1603611299575f60015f5f1b935093509350506112a6565b805f5f5f1b935093509350505b9450945094915050565b5f5ffd5b5f5ffd5b5f63ffffffff82169050919050565b6112d0816112b8565b81146112da575f5ffd5b50565b5f813590506112eb816112c7565b92915050565b5f60208284031215611306576113056112b0565b5b5f611313848285016112dd565b91505092915050565b5f73ffffffffffffffffffffffffffffffffffffffff82169050919050565b5f6113458261131c565b9050919050565b6113558161133b565b811461135f575f5ffd5b50565b5f813590506113708161134c565b92915050565b5f819050919050565b61138881611376565b8114611392575f5ffd5b50565b5f813590506113a38161137f565b92915050565b5f5f604083850312156113bf576113be6112b0565b5b5f6113cc85828601611362565b92505060206113dd85828601611395565b9150509250929050565b5f6113f18261131c565b9050919050565b611401816113e7565b82525050565b5f60208201905061141a5f8301846113f8565b92915050565b61142981611376565b82525050565b5f6020820190506114425f830184611420565b92915050565b5f5ffd5b5f610120828403121561146257611461611448565b5b81905092915050565b5f819050919050565b61147d8161146b565b8114611487575f5ffd5b50565b5f8135905061149881611474565b92915050565b5f5f5f606084860312156114b5576114b46112b0565b5b5f84013567ffffffffffffffff8111156114d2576114d16112b4565b5b6114de8682870161144c565b93505060206114ef8682870161148a565b925050604061150086828701611395565b9150509250925092565b5f81519050919050565b5f82825260208201905092915050565b8281835e5f83830152505050565b5f601f19601f8301169050919050565b5f61154c8261150a565b6115568185611514565b9350611566818560208601611524565b61156f81611532565b840191505092915050565b5f6040820190508181035f8301526115928185611542565b90506115a16020830184611420565b9392505050565b5f65ffffffffffff82169050919050565b6115c2816115a8565b81146115cc575f5ffd5b50565b5f813590506115dd816115b9565b92915050565b5f5f5f606084860312156115fa576115f96112b0565b5b5f84013567ffffffffffffffff811115611617576116166112b4565b5b6116238682870161144c565b9350506020611634868287016115cf565b9250506040611645868287016115cf565b9150509250925092565b6116588161146b565b82525050565b5f6020820190506116715f83018461164f565b92915050565b60038110611683575f5ffd5b50565b5f8135905061169481611677565b92915050565b5f5ffd5b5f5ffd5b5f5ffd5b5f5f83601f8401126116bb576116ba61169a565b5b8235905067ffffffffffffffff8111156116d8576116d761169e565b5b6020830191508360018202830111156116f4576116f36116a2565b5b9250929050565b5f5f5f5f5f60808688031215611714576117136112b0565b5b5f61172188828901611686565b955050602086013567ffffffffffffffff811115611742576117416112b4565b5b61174e888289016116a6565b9450945050604061176188828901611395565b925050606061177288828901611395565b9150509295509295909350565b5f819050919050565b5f6117a261179d6117988461131c565b61177f565b61131c565b9050919050565b5f6117b382611788565b9050919050565b5f6117c4826117a9565b9050919050565b6117d4816117ba565b82525050565b5f6020820190506117ed5f8301846117cb565b92915050565b5f60208284031215611808576118076112b0565b5b5f61181584828501611362565b91505092915050565b611827816113e7565b8114611831575f5ffd5b50565b5f813590506118428161181e565b92915050565b5f6020828403121561185d5761185c6112b0565b5b5f61186a84828501611834565b91505092915050565b61187c816112b8565b82525050565b5f6020820190506118955f830184611873565b92915050565b6118a48161133b565b82525050565b5f6040820190506118bd5f83018561189b565b6118ca6020830184611420565b9392505050565b5f815190506118df8161137f565b92915050565b5f602082840312156118fa576118f96112b0565b5b5f611907848285016118d1565b91505092915050565b611919816115a8565b82525050565b5f610160820190506119335f83018e6113f8565b611940602083018d611420565b61194d604083018c611420565b61195a606083018b611420565b611967608083018a611420565b61197460a0830189611420565b61198160c0830188611420565b61198e60e0830187611420565b61199c6101008301866113f8565b6119aa610120830185611910565b6119b8610140830184611910565b9c9b505050505050505050505050565b5f6020820190506119db5f83018461189b565b92915050565b5f82825260208201905092915050565b7f53656e646572206e6f7420456e747279506f696e7400000000000000000000005f82015250565b5f611a256015836119e1565b9150611a30826119f1565b602082019050919050565b5f6020820190508181035f830152611a5281611a19565b9050919050565b5f5ffd5b5f5ffd5b5f5ffd5b5f5f83356001602003843603038112611a8157611a80611a59565b5b80840192508235915067ffffffffffffffff821115611aa357611aa2611a5d565b5b602083019250600182023603831315611abf57611abe611a61565b5b509250929050565b7f5061796d61737465723a20696e73756666696369656e74206465706f736974005f82015250565b5f611afb601f836119e1565b9150611b0682611ac7565b602082019050919050565b5f6020820190508181035f830152611b2881611aef565b9050919050565b7f6d757374206f76657272696465000000000000000000000000000000000000005f82015250565b5f611b63600d836119e1565b9150611b6e82611b2f565b602082019050919050565b5f6020820190508181035f830152611b9081611b57565b9050919050565b5f5ffd5b5f5ffd5b5f5f85851115611bb257611bb1611b97565b5b83861115611bc357611bc2611b9b565b5b6001850283019150848603905094509492505050565b5f5f60408385031215611bef57611bee6112b0565b5b5f611bfc858286016115cf565b9250506020611c0d858286016115cf565b9150509250929050565b7f4e487b71000000000000000000000000000000000000000000000000000000005f52602160045260245ffd5b5f60ff82169050919050565b611c5981611c44565b82525050565b5f608082019050611c725f83018761164f565b611c7f6020830186611c50565b611c8c604083018561164f565b611c99606083018461164f565b9594505050505056fea264697066735822122011be01d38613a9d1fe2c673e463d20dd25371d4d269bdab8011245af1112b01664736f6c634300081c0033","linkReferences":{}},"methodIdentifiers":{"acceptOwnership()":"79ba5097","addDeposit()":"4a58db19","addStake(uint32)":"0396cb60","deposit()":"d0e30db0","entryPoint()":"b0d691fe","getDeposit()":"c399ec88","getHash((address,uint256,bytes,bytes,bytes32,uint256,bytes32,bytes,bytes),uint48,uint48)":"5829c5f5","owner()":"8da5cb5b","paymasterDeposit()":"37d0b0af","pendingOwner()":"e30c3978","postOp(uint8,bytes,uint256,uint256)":"7c627b21","renounceOwnership()":"715018a6","transferOwnership(address)":"f2fde38b","unlockStake()":"bb9fe6bf","validatePaymasterUserOp((address,uint256,bytes,bytes,bytes32,uint256,bytes32,bytes,bytes),bytes32,uint256)":"52b7512c","verifyingSigner()":"23d9ac9b","withdrawStake(address)":"c23a5cea","withdrawTo(address,uint256)":"205c2878"},"id":68}