{"abi":[{"type":"function","name":"createSender","inputs":[{"name":"initCode","type":"bytes","internalType":"bytes"}],"outputs":[{"name":"sender","type":"address","internalType":"address"}],"stateMutability":"nonpayable"}],"bytecode":{"object":"0x6080806040523460155761014d908161001a8239f35b5f80fdfe6080600436101561000e575f80fd5b5f3560e01c63570e1a3614610021575f80fd5b34610113576020366003190112610113576004359067ffffffffffffffff821161011357366023830112156101135781600401359167ffffffffffffffff8311610113573660248483010111610113578260141161011357601319830167ffffffffffffffff81116100ff57600b8401601f19908116603f011683019367ffffffffffffffff8511848610176100ff5760245f9485600c819460209960405286845289840196603889018837830101525193013560601c5af15f5190156100f8575b6040516001600160a01b039091168152602090f35b505f6100e3565b634e487b7160e01b5f52604160045260245ffd5b5f80fdfea2646970667358221220fce529db0f82f8149bd2d7cffb0b5001ed6104b688132ebd8581c195295c762d64736f6c634300081c0033","linkReferences":{}},"methodIdentifiers":{"createSender(bytes)":"570e1a36"},"id":5}