{"abi":[{"type":"constructor","inputs":[],"stateMutability":"nonpayable"},{"type":"function","name":"createSender","inputs":[{"name":"initCode","type":"bytes","internalType":"bytes"}],"outputs":[{"name":"sender","type":"address","internalType":"address"}],"stateMutability":"nonpayable"},{"type":"function","name":"entryPoint","inputs":[],"outputs":[{"name":"","type":"address","internalType":"address"}],"stateMutability":"view"},{"type":"function","name":"initEip7702Sender","inputs":[{"name":"sender","type":"address","internalType":"address"},{"name":"initCallData","type":"bytes","internalType":"bytes"}],"outputs":[],"stateMutability":"nonpayable"},{"type":"error","name":"FailedOpWithRevert","inputs":[{"name":"opIndex","type":"uint256","internalType":"uint256"},{"name":"reason","type":"string","internalType":"string"},{"name":"inner","type":"bytes","internalType":"bytes"}]}],"bytecode":{"object":"0x60a0604052348015600e575f5ffd5b503373ffffffffffffffffffffffffffffffffffffffff1660808173ffffffffffffffffffffffffffffffffffffffff16815250506080516108c26100685f395f818160b0015281816101de015261020201526108c25ff3fe608060405234801561000f575f5ffd5b506004361061003f575f3560e01c8063570e1a3614610043578063b0d691fe14610073578063c09ad0d914610091575b5f5ffd5b61005d6004803603810190610058919061039e565b6100ad565b60405161006a9190610428565b60405180910390f35b61007b6101dc565b6040516100889190610428565b60405180910390f35b6100ab60048036038101906100a691906105a3565b610200565b005b5f7f000000000000000000000000000000000000000000000000000000000000000073ffffffffffffffffffffffffffffffffffffffff163373ffffffffffffffffffffffffffffffffffffffff161461013c576040517f08c379a000000000000000000000000000000000000000000000000000000000815260040161013390610657565b60405180910390fd5b5f83835f906014926101509392919061067d565b9061015b91906106f8565b60601c90505f848460149080926101749392919061067d565b8080601f0160208091040260200160405190810160405280939291908181526020018383808284375f81840152601f19601f8201169050808301925050505050505090505f60205f8351602085015f875af1905080156101d3575f5193505b50505092915050565b7f000000000000000000000000000000000000000000000000000000000000000081565b7f000000000000000000000000000000000000000000000000000000000000000073ffffffffffffffffffffffffffffffffffffffff163373ffffffffffffffffffffffffffffffffffffffff161461028e576040517f08c379a000000000000000000000000000000000000000000000000000000000815260040161028590610657565b60405180910390fd5b5f5f5f8351602085015f875af19050806102ef575f6102ae6108006102f4565b90505f816040517f65c8fd4d0000000000000000000000000000000000000000000000000000000081526004016102e692919061084b565b60405180910390fd5b505050565b60603d5f83111561030c578281111561030b578290505b5b604051602082018101604052818152815f602083013e8092505050919050565b5f604051905090565b5f5ffd5b5f5ffd5b5f5ffd5b5f5ffd5b5f5ffd5b5f5f83601f84011261035e5761035d61033d565b5b8235905067ffffffffffffffff81111561037b5761037a610341565b5b60208301915083600182028301111561039757610396610345565b5b9250929050565b5f5f602083850312156103b4576103b3610335565b5b5f83013567ffffffffffffffff8111156103d1576103d0610339565b5b6103dd85828601610349565b92509250509250929050565b5f73ffffffffffffffffffffffffffffffffffffffff82169050919050565b5f610412826103e9565b9050919050565b61042281610408565b82525050565b5f60208201905061043b5f830184610419565b92915050565b61044a81610408565b8114610454575f5ffd5b50565b5f8135905061046581610441565b92915050565b5f5ffd5b5f601f19601f8301169050919050565b7f4e487b71000000000000000000000000000000000000000000000000000000005f52604160045260245ffd5b6104b58261046f565b810181811067ffffffffffffffff821117156104d4576104d361047f565b5b80604052505050565b5f6104e661032c565b90506104f282826104ac565b919050565b5f67ffffffffffffffff8211156105115761051061047f565b5b61051a8261046f565b9050602081019050919050565b828183375f83830152505050565b5f610547610542846104f7565b6104dd565b9050828152602081018484840111156105635761056261046b565b5b61056e848285610527565b509392505050565b5f82601f83011261058a5761058961033d565b5b813561059a848260208601610535565b91505092915050565b5f5f604083850312156105b9576105b8610335565b5b5f6105c685828601610457565b925050602083013567ffffffffffffffff8111156105e7576105e6610339565b5b6105f385828601610576565b9150509250929050565b5f82825260208201905092915050565b7f414139372073686f756c642063616c6c2066726f6d20456e747279506f696e745f82015250565b5f6106416020836105fd565b915061064c8261060d565b602082019050919050565b5f6020820190508181035f83015261066e81610635565b9050919050565b5f5ffd5b5f5ffd5b5f5f858511156106905761068f610675565b5b838611156106a1576106a0610679565b5b6001850283019150848603905094509492505050565b5f82905092915050565b5f7fffffffffffffffffffffffffffffffffffffffff00000000000000000000000082169050919050565b5f82821b905092915050565b5f61070383836106b7565b8261070e81356106c1565b9250601482101561074e576107497fffffffffffffffffffffffffffffffffffffffff000000000000000000000000836014036008026106ec565b831692505b505092915050565b5f819050919050565b5f819050919050565b5f819050919050565b5f61078b61078661078184610756565b610768565b61075f565b9050919050565b61079b81610771565b82525050565b7f4141313320454950373730322073656e64657220696e6974206661696c6564005f82015250565b5f6107d5601f836105fd565b91506107e0826107a1565b602082019050919050565b5f81519050919050565b5f82825260208201905092915050565b8281835e5f83830152505050565b5f61081d826107eb565b61082781856107f5565b9350610837818560208601610805565b6108408161046f565b840191505092915050565b5f60608201905061085e5f830185610792565b818103602083015261086f816107c9565b905081810360408301526108838184610813565b9050939250505056fea26469706673582212209ed8c4f8af77a93138fe7197e3298f46abffad64e77b7fef044e3740a27531e364736f6c634300081c0033","linkReferences":{}},"methodIdentifiers":{"createSender(bytes)":"570e1a36","entryPoint()":"b0d691fe","initEip7702Sender(address,bytes)":"c09ad0d9"},"id":6}