{"abi":[{"type":"constructor","inputs":[{"name":"_owner","type":"address","internalType":"address"},{"name":"ePoint","type":"address","internalType":"contract IEntryPoint"}],"stateMutability":"nonpayable"},{"type":"receive","stateMutability":"payable"},{"type":"function","name":"addDeposit","inputs":[],"outputs":[],"stateMutability":"payable"},{"type":"function","name":"entryPoint","inputs":[],"outputs":[{"name":"","type":"address","internalType":"contract IEntryPoint"}],"stateMutability":"view"},{"type":"function","name":"execute","inputs":[{"name":"dest","type":"address","internalType":"address"},{"name":"value","type":"uint256","internalType":"uint256"},{"name":"data","type":"bytes","internalType":"bytes"}],"outputs":[],"stateMutability":"nonpayable"},{"type":"function","name":"executeBatch","inputs":[{"name":"calls","type":"tuple[]","internalType":"struct BaseAccount.Call[]","components":[{"name":"target","type":"address","internalType":"address"},{"name":"value","type":"uint256","internalType":"uint256"},{"name":"data","type":"bytes","internalType":"bytes"}]}],"outputs":[],"stateMutability":"nonpayable"},{"type":"function","name":"executeBatch","inputs":[{"name":"dest","type":"address[]","internalType":"address[]"},{"name":"value","type":"uint256[]","internalType":"uint256[]"},{"name":"func","type":"bytes[]","internalType":"bytes[]"}],"outputs":[],"stateMutability":"nonpayable"},{"type":"function","name":"getDeposit","inputs":[],"outputs":[{"name":"","type":"uint256","internalType":"uint256"}],"stateMutability":"view"},{"type":"function","name":"getNonce","inputs":[],"outputs":[{"name":"","type":"uint256","internalType":"uint256"}],"stateMutability":"view"},{"type":"function","name":"owner","inputs":[],"outputs":[{"name":"","type":"address","internalType":"address"}],"stateMutability":"view"},{"type":"function","name":"validateUserOp","inputs":[{"name":"userOp","type":"tuple","internalType":"struct PackedUserOperation","components":[{"name":"sender","type":"address","internalType":"address"},{"name":"nonce","type":"uint256","internalType":"uint256"},{"name":"initCode","type":"bytes","internalType":"bytes"},{"name":"callData","type":"bytes","internalType":"bytes"},{"name":"accountGasLimits","type":"bytes32","internalType":"bytes32"},{"name":"preVerificationGas","type":"uint256","internalType":"uint256"},{"name":"gasFees","type":"bytes32","internalType":"bytes32"},{"name":"paymasterAndData","type":"bytes","internalType":"bytes"},{"name":"signature","type":"bytes","internalType":"bytes"}]},{"name":"userOpHash","type":"bytes32","internalType":"bytes32"},{"name":"missingAccountFunds","type":"uint256","internalType":"uint256"}],"outputs":[{"name":"validationData","type":"uint256","internalType":"uint256"}],"stateMutability":"nonpayable"},{"type":"function","name":"withdrawDepositTo","inputs":[{"name":"withdrawAddress","type":"address","internalType":"address payable"},{"name":"amount","type":"uint256","internalType":"uint256"}],"outputs":[],"stateMutability":"nonpayable"},{"type":"error","name":"ECDSAInvalidSignature","inputs":[]},{"type":"error","name":"ECDSAInvalidSignatureLength","inputs":[{"name":"length","type":"uint256","internalType":"uint256"}]},{"type":"error","name":"ECDSAInvalidSignatureS","inputs":[{"name":"s","type":"bytes32","internalType":"bytes32"}]},{"type":"error","name":"ExecuteError","inputs":[{"name":"index","type":"uint256","internalType":"uint256"},{"name":"error","type":"bytes","internalType":"bytes"}]},{"type":"error","name":"NotAuthorized","inputs":[]},{"type":"error","name":"NotEntryPoint","inputs":[]},{"type":"error","name":"NotOwnerOrEntryPoint","inputs":[]},{"type":"error","name":"WrongArrayLengths","inputs":[]}],"bytecode":{"object":"0x60a060405234801561000f575f5ffd5b5060405161194338038061194383398181016040528101906100319190610144565b815f5f6101000a81548173ffffffffffffffffffffffffffffffffffffffff021916908373ffffffffffffffffffffffffffffffffffffffff1602179055508073ffffffffffffffffffffffffffffffffffffffff1660808173ffffffffffffffffffffffffffffffffffffffff16815250505050610182565b5f5ffd5b5f73ffffffffffffffffffffffffffffffffffffffff82169050919050565b5f6100d8826100af565b9050919050565b6100e8816100ce565b81146100f2575f5ffd5b50565b5f81519050610103816100df565b92915050565b5f610113826100ce565b9050919050565b61012381610109565b811461012d575f5ffd5b50565b5f8151905061013e8161011a565b92915050565b5f5f6040838503121561015a576101596100ab565b5b5f610167858286016100f5565b925050602061017885828601610130565b9150509250929050565b6080516117a961019a5f395f61059101526117a95ff3fe608060405260043610610094575f3560e01c80638da5cb5b116100585780638da5cb5b1461015d578063b0d691fe14610187578063b61d27f6146101b1578063c399ec88146101d9578063d087d288146102035761009b565b806319822f7c1461009f57806334fcd5be146100db57806347e1da2a146101035780634a58db191461012b5780634d44560d146101355761009b565b3661009b57005b5f5ffd5b3480156100aa575f5ffd5b506100c560048036038101906100c09190610e8e565b61022d565b6040516100d29190610f09565b60405180910390f35b3480156100e6575f5ffd5b5061010160048036038101906100fc9190610f83565b61025f565b005b34801561010e575f5ffd5b50610129600480360381019061012491906110cd565b61038f565b005b61013361047e565b005b348015610140575f5ffd5b5061015b600480360381019061015691906111d7565b6104ef565b005b348015610168575f5ffd5b5061017161056a565b60405161017e9190611235565b60405180910390f35b348015610192575f5ffd5b5061019b61058e565b6040516101a891906112a9565b60405180910390f35b3480156101bc575f5ffd5b506101d760048036038101906101d29190611341565b6105b5565b005b3480156101e4575f5ffd5b506101ed6105cf565b6040516101fa9190610f09565b60405180910390f35b34801561020e575f5ffd5b50610217610654565b6040516102249190610f09565b60405180910390f35b5f6102366106db565b6102408484610749565b905061024f8460200135610822565b61025882610825565b9392505050565b6102676108bc565b5f8282905090505f5f90505b81811015610389573684848381811061028f5761028e6113b2565b5b90506020028101906102a191906113eb565b90505f610316825f0160208101906102b99190611412565b83602001358480604001906102ce919061143d565b8080601f0160208091040260200160405190810160405280939291908181526020018383808284375f81840152601f19601f820116905080830192505050505050505a6108c6565b90508061037a57600184036103325761032d6108dd565b610379565b8261033c5f6108f0565b6040517f5a15467500000000000000000000000000000000000000000000000000000000815260040161037092919061150f565b60405180910390fd5b5b50508080600101915050610273565b50505050565b610397610928565b81819050868690501415806103b25750838390508686905014155b156103e9576040517f9e63483b00000000000000000000000000000000000000000000000000000000815260040160405180910390fd5b5f5f90505b868690508110156104755761046887878381811061040f5761040e6113b2565b5b90506020020160208101906104249190611412565b868684818110610437576104366113b2565b5b90506020020135858585818110610451576104506113b2565b5b9050602002810190610463919061143d565b6109f0565b80806001019150506103ee565b50505050505050565b61048661058e565b73ffffffffffffffffffffffffffffffffffffffff1663b760faf934306040518363ffffffff1660e01b81526004016104bf9190611235565b5f604051808303818588803b1580156104d6575f5ffd5b505af11580156104e8573d5f5f3e3d5ffd5b5050505050565b6104f7610a73565b6104ff61058e565b73ffffffffffffffffffffffffffffffffffffffff1663205c287883836040518363ffffffff1660e01b815260040161053992919061154c565b5f604051808303815f87803b158015610550575f5ffd5b505af1158015610562573d5f5f3e3d5ffd5b505050505050565b5f5f9054906101000a900473ffffffffffffffffffffffffffffffffffffffff1681565b5f7f0000000000000000000000000000000000000000000000000000000000000000905090565b6105bd610928565b6105c9848484846109f0565b50505050565b5f6105d861058e565b73ffffffffffffffffffffffffffffffffffffffff166370a08231306040518263ffffffff1660e01b81526004016106109190611235565b602060405180830381865afa15801561062b573d5f5f3e3d5ffd5b505050506040513d601f19601f8201168201806040525081019061064f9190611587565b905090565b5f61065d61058e565b73ffffffffffffffffffffffffffffffffffffffff166335567e1a305f6040518363ffffffff1660e01b815260040161069792919061160e565b602060405180830381865afa1580156106b2573d5f5f3e3d5ffd5b505050506040513d601f19601f820116820180604052508101906106d69190611587565b905090565b6106e361058e565b73ffffffffffffffffffffffffffffffffffffffff163373ffffffffffffffffffffffffffffffffffffffff1614610747576040517fd663742a00000000000000000000000000000000000000000000000000000000815260040160405180910390fd5b565b5f5f61075483610afa565b90506107bb8480610100019061076a919061143d565b8080601f0160208091040260200160405190810160405280939291908181526020018383808284375f81840152601f19601f8201169050808301925050505050505082610b2d90919063ffffffff16565b73ffffffffffffffffffffffffffffffffffffffff165f5f9054906101000a900473ffffffffffffffffffffffffffffffffffffffff1673ffffffffffffffffffffffffffffffffffffffff161461081757600191505061081c565b5f9150505b92915050565b50565b5f81146108b9575f3373ffffffffffffffffffffffffffffffffffffffff16827fffffffffffffffffffffffffffffffffffffffffffffffffffffffffffffffff9060405161087390611662565b5f60405180830381858888f193505050503d805f81146108ae576040519150601f19603f3d011682016040523d82523d5f602084013e6108b3565b606091505b50509050505b50565b6108c46106db565b565b5f5f5f845160208601878987f19050949350505050565b6108ee6108e95f6108f0565b610b57565b565b60603d5f8311156109085782811115610907578290505b5b604051602082018101604052818152815f602083013e8092505050919050565b61093061058e565b73ffffffffffffffffffffffffffffffffffffffff163373ffffffffffffffffffffffffffffffffffffffff16141580156109b757505f5f9054906101000a900473ffffffffffffffffffffffffffffffffffffffff1673ffffffffffffffffffffffffffffffffffffffff163373ffffffffffffffffffffffffffffffffffffffff1614155b156109ee576040517f50a222f400000000000000000000000000000000000000000000000000000000815260040160405180910390fd5b565b5f5f8573ffffffffffffffffffffffffffffffffffffffff16858585604051610a1a9291906116a8565b5f6040518083038185875af1925050503d805f8114610a54576040519150601f19603f3d011682016040523d82523d5f602084013e610a59565b606091505b509150915081610a6b57805160208201fd5b505050505050565b5f5f9054906101000a900473ffffffffffffffffffffffffffffffffffffffff1673ffffffffffffffffffffffffffffffffffffffff163373ffffffffffffffffffffffffffffffffffffffff1614610af8576040517fea8e4eb500000000000000000000000000000000000000000000000000000000815260040160405180910390fd5b565b5f7f19457468657265756d205369676e6564204d6573736167653a0a3332000000005f5281601c52603c5f209050919050565b5f5f5f5f610b3b8686610b5f565b925092509250610b4b8282610bb4565b82935050505092915050565b805160208201fd5b5f5f5f6041845103610b9f575f5f5f602087015192506040870151915060608701515f1a9050610b9188828585610d16565b955095509550505050610bad565b5f600285515f1b9250925092505b9250925092565b5f6003811115610bc757610bc66116c0565b5b826003811115610bda57610bd96116c0565b5b0315610d125760016003811115610bf457610bf36116c0565b5b826003811115610c0757610c066116c0565b5b03610c3e576040517ff645eedf00000000000000000000000000000000000000000000000000000000815260040160405180910390fd5b60026003811115610c5257610c516116c0565b5b826003811115610c6557610c646116c0565b5b03610ca957805f1c6040517ffce698f7000000000000000000000000000000000000000000000000000000008152600401610ca09190610f09565b60405180910390fd5b600380811115610cbc57610cbb6116c0565b5b826003811115610ccf57610cce6116c0565b5b03610d1157806040517fd78bce0c000000000000000000000000000000000000000000000000000000008152600401610d0891906116fc565b60405180910390fd5b5b5050565b5f5f5f7f7fffffffffffffffffffffffffffffff5d576e7357a4501ddfe92f46681b20a0845f1c1115610d52575f600385925092509250610df3565b5f6001888888886040515f8152602001604052604051610d759493929190611730565b6020604051602081039080840390855afa158015610d95573d5f5f3e3d5ffd5b5050506020604051035190505f73ffffffffffffffffffffffffffffffffffffffff168173ffffffffffffffffffffffffffffffffffffffff1603610de6575f60015f5f1b93509350935050610df3565b805f5f5f1b935093509350505b9450945094915050565b5f5ffd5b5f5ffd5b5f5ffd5b5f6101208284031215610e1f57610e1e610e05565b5b81905092915050565b5f819050919050565b610e3a81610e28565b8114610e44575f5ffd5b50565b5f81359050610e5581610e31565b92915050565b5f819050919050565b610e6d81610e5b565b8114610e77575f5ffd5b50565b5f81359050610e8881610e64565b92915050565b5f5f5f60608486031215610ea557610ea4610dfd565b5b5f84013567ffffffffffffffff811115610ec257610ec1610e01565b5b610ece86828701610e09565b9350506020610edf86828701610e47565b9250506040610ef086828701610e7a565b9150509250925092565b610f0381610e5b565b82525050565b5f602082019050610f1c5f830184610efa565b92915050565b5f5ffd5b5f5ffd5b5f5ffd5b5f5f83601f840112610f4357610f42610f22565b5b8235905067ffffffffffffffff811115610f6057610f5f610f26565b5b602083019150836020820283011115610f7c57610f7b610f2a565b5b9250929050565b5f5f60208385031215610f9957610f98610dfd565b5b5f83013567ffffffffffffffff811115610fb657610fb5610e01565b5b610fc285828601610f2e565b92509250509250929050565b5f5f83601f840112610fe357610fe2610f22565b5b8235905067ffffffffffffffff81111561100057610fff610f26565b5b60208301915083602082028301111561101c5761101b610f2a565b5b9250929050565b5f5f83601f84011261103857611037610f22565b5b8235905067ffffffffffffffff81111561105557611054610f26565b5b60208301915083602082028301111561107157611070610f2a565b5b9250929050565b5f5f83601f84011261108d5761108c610f22565b5b8235905067ffffffffffffffff8111156110aa576110a9610f26565b5b6020830191508360208202830111156110c6576110c5610f2a565b5b9250929050565b5f5f5f5f5f5f606087890312156110e7576110e6610dfd565b5b5f87013567ffffffffffffffff81111561110457611103610e01565b5b61111089828a01610fce565b9650965050602087013567ffffffffffffffff81111561113357611132610e01565b5b61113f89828a01611023565b9450945050604087013567ffffffffffffffff81111561116257611161610e01565b5b61116e89828a01611078565b92509250509295509295509295565b5f73ffffffffffffffffffffffffffffffffffffffff82169050919050565b5f6111a68261117d565b9050919050565b6111b68161119c565b81146111c0575f5ffd5b50565b5f813590506111d1816111ad565b92915050565b5f5f604083850312156111ed576111ec610dfd565b5b5f6111fa858286016111c3565b925050602061120b85828601610e7a565b9150509250929050565b5f61121f8261117d565b9050919050565b61122f81611215565b82525050565b5f6020820190506112485f830184611226565b92915050565b5f819050919050565b5f61127161126c6112678461117d565b61124e565b61117d565b9050919050565b5f61128282611257565b9050919050565b5f61129382611278565b9050919050565b6112a381611289565b82525050565b5f6020820190506112bc5f83018461129a565b92915050565b6112cb81611215565b81146112d5575f5ffd5b50565b5f813590506112e6816112c2565b92915050565b5f5f83601f84011261130157611300610f22565b5b8235905067ffffffffffffffff81111561131e5761131d610f26565b5b60208301915083600182028301111561133a57611339610f2a565b5b9250929050565b5f5f5f5f6060858703121561135957611358610dfd565b5b5f611366878288016112d8565b945050602061137787828801610e7a565b935050604085013567ffffffffffffffff81111561139857611397610e01565b5b6113a4878288016112ec565b925092505092959194509250565b7f4e487b71000000000000000000000000000000000000000000000000000000005f52603260045260245ffd5b5f5ffd5b5f5ffd5b5f5ffd5b5f82356001606003833603038112611406576114056113df565b5b80830191505092915050565b5f6020828403121561142757611426610dfd565b5b5f611434848285016112d8565b91505092915050565b5f5f83356001602003843603038112611459576114586113df565b5b80840192508235915067ffffffffffffffff82111561147b5761147a6113e3565b5b602083019250600182023603831315611497576114966113e7565b5b509250929050565b5f81519050919050565b5f82825260208201905092915050565b8281835e5f83830152505050565b5f601f19601f8301169050919050565b5f6114e18261149f565b6114eb81856114a9565b93506114fb8185602086016114b9565b611504816114c7565b840191505092915050565b5f6040820190506115225f830185610efa565b818103602083015261153481846114d7565b90509392505050565b6115468161119c565b82525050565b5f60408201905061155f5f83018561153d565b61156c6020830184610efa565b9392505050565b5f8151905061158181610e64565b92915050565b5f6020828403121561159c5761159b610dfd565b5b5f6115a984828501611573565b91505092915050565b5f819050919050565b5f77ffffffffffffffffffffffffffffffffffffffffffffffff82169050919050565b5f6115f86115f36115ee846115b2565b61124e565b6115bb565b9050919050565b611608816115de565b82525050565b5f6040820190506116215f830185611226565b61162e60208301846115ff565b9392505050565b5f81905092915050565b50565b5f61164d5f83611635565b91506116588261163f565b5f82019050919050565b5f61166c82611642565b9150819050919050565b828183375f83830152505050565b5f61168f8385611635565b935061169c838584611676565b82840190509392505050565b5f6116b4828486611684565b91508190509392505050565b7f4e487b71000000000000000000000000000000000000000000000000000000005f52602160045260245ffd5b6116f681610e28565b82525050565b5f60208201905061170f5f8301846116ed565b92915050565b5f60ff82169050919050565b61172a81611715565b82525050565b5f6080820190506117435f8301876116ed565b6117506020830186611721565b61175d60408301856116ed565b61176a60608301846116ed565b9594505050505056fea264697066735822122038b30769cd704db097da0e51b4e7de9b24f3338ff41e66e0eeeb6c199cd27dfa64736f6c634300081c0033","linkReferences":{}},"methodIdentifiers":{"addDeposit()":"4a58db19","entryPoint()":"b0d691fe","execute(address,uint256,bytes)":"b61d27f6","executeBatch((address,uint256,bytes)[])":"34fcd5be","executeBatch(address[],uint256[],bytes[])":"47e1da2a","getDeposit()":"c399ec88","getNonce()":"d087d288","owner()":"8da5cb5b","validateUserOp((address,uint256,bytes,bytes,bytes32,uint256,bytes32,bytes,bytes),bytes32,uint256)":"19822f7c","withdrawDepositTo(address,uint256)":"4d44560d"},"id":69}