{"abi":[{"type":"constructor","inputs":[{"name":"_owner","type":"address","internalType":"address"},{"name":"ePoint","type":"address","internalType":"contract IEntryPoint"}],"stateMutability":"nonpayable"},{"type":"receive","stateMutability":"payable"},{"type":"function","name":"addDeposit","inputs":[],"outputs":[],"stateMutability":"payable"},{"type":"function","name":"entryPoint","inputs":[],"outputs":[{"name":"","type":"address","internalType":"contract IEntryPoint"}],"stateMutability":"view"},{"type":"function","name":"execute","inputs":[{"name":"dest","type":"address","internalType":"address"},{"name":"value","type":"uint256","internalType":"uint256"},{"name":"data","type":"bytes","internalType":"bytes"}],"outputs":[],"stateMutability":"nonpayable"},{"type":"function","name":"executeBatch","inputs":[{"name":"dest","type":"address[]","internalType":"address[]"},{"name":"value","type":"uint256[]","internalType":"uint256[]"},{"name":"func","type":"bytes[]","internalType":"bytes[]"}],"outputs":[],"stateMutability":"nonpayable"},{"type":"function","name":"getDeposit","inputs":[],"outputs":[{"name":"","type":"uint256","internalType":"uint256"}],"stateMutability":"view"},{"type":"function","name":"getNonce","inputs":[],"outputs":[{"name":"","type":"uint256","internalType":"uint256"}],"stateMutability":"view"},{"type":"function","name":"owner","inputs":[],"outputs":[{"name":"","type":"address","internalType":"address"}],"stateMutability":"view"},{"type":"function","name":"validateUserOp","inputs":[{"name":"userOp","type":"tuple","internalType":"struct PackedUserOperation","components":[{"name":"sender","type":"address","internalType":"address"},{"name":"nonce","type":"uint256","internalType":"uint256"},{"name":"initCode","type":"bytes","internalType":"bytes"},{"name":"callData","type":"bytes","internalType":"bytes"},{"name":"accountGasLimits","type":"bytes32","internalType":"bytes32"},{"name":"preVerificationGas","type":"uint256","internalType":"uint256"},{"name":"gasFees","type":"bytes32","internalType":"bytes32"},{"name":"paymasterAndData","type":"bytes","internalType":"bytes"},{"name":"signature","type":"bytes","internalType":"bytes"}]},{"name":"userOpHash","type":"bytes32","internalType":"bytes32"},{"name":"missingAccountFunds","type":"uint256","internalType":"uint256"}],"outputs":[{"name":"validationData","type":"uint256","internalType":"uint256"}],"stateMutability":"nonpayable"},{"type":"function","name":"withdrawDepositTo","inputs":[{"name":"withdrawAddress","type":"address","internalType":"address payable"},{"name":"amount","type":"uint256","internalType":"uint256"}],"outputs":[],"stateMutability":"nonpayable"},{"type":"error","name":"ECDSAInvalidSignature","inputs":[]},{"type":"error","name":"ECDSAInvalidSignatureLength","inputs":[{"name":"length","type":"uint256","internalType":"uint256"}]},{"type":"error","name":"ECDSAInvalidSignatureS","inputs":[{"name":"s","type":"bytes32","internalType":"bytes32"}]},{"type":"error","name":"NotAuthorized","inputs":[]},{"type":"error","name":"NotEntryPoint","inputs":[]},{"type":"error","name":"NotOwnerOrEntryPoint","inputs":[]},{"type":"error","name":"WrongArrayLengths","inputs":[]}],"bytecode":{"object":"0x60a0346100be57601f610a7638819003918201601f19168301916001600160401b038311848410176100c25780849260409485528339810103126100be5780516001600160a01b03811691908290036100be5760200151906001600160a01b03821682036100be575f80546001600160a01b03191691909117905560805260405161099f90816100d7823960805181818160e0015281816102af015281816103630152818161041c015281816104e20152818161058d01526107890152f35b5f80fd5b634e487b7160e01b5f52604160045260245ffdfe6080604052600436101561001a575b3615610018575f80fd5b005b5f3560e01c806319822f7c146100a957806347e1da2a146100a45780634a58db191461009f5780634d44560d1461009a5780638da5cb5b14610095578063b0d691fe14610090578063b61d27f61461008b578063c399ec88146100865763d087d2880361000e5761055c565b6104b7565b61044b565b610407565b6103e0565b61032d565b6102a1565b61019a565b346101655760603660031901126101655760043567ffffffffffffffff8111610165576101206003198236030112610165576044357f00000000000000000000000000000000000000000000000000000000000000006001600160a01b031633036101565761012161013992602435906004016106b6565b908061013d575b506040519081529081906020820190565b0390f35b5f80808093338219f15061014f610757565b5082610128565b636b31ba1560e11b5f5260045ffd5b5f80fd5b9181601f840112156101655782359167ffffffffffffffff8311610165576020808501948460051b01011161016557565b346101655760603660031901126101655760043567ffffffffffffffff8111610165576101cb903690600401610169565b9060243567ffffffffffffffff8111610165576101ec903690600401610169565b91909260443567ffffffffffffffff81116101655761020f903690600401610169565b91909261021a610786565b828214801590610297575b610288575f5b82811061023457005b61023f8184846105ec565b359061024a8261031c565b61025581888a6105ec565b3591858210156102835760019261027d916102758460051b8a018a6105fc565b9290916107e2565b0161022b565b6105d8565b639e63483b60e01b5f5260045ffd5b5084821415610225565b5f5f600319360112610165577f00000000000000000000000000000000000000000000000000000000000000006001600160a01b0316803b15610165575f6024916040519283809263b760faf960e01b825230600483015234905af180156103175761030b575080f35b61001891505f90610643565b61066a565b6001600160a01b0381160361016557565b34610165575f60403660031901126101655760043561034b8161031c565b5f5460243591906001600160a01b031633036103d1577f00000000000000000000000000000000000000000000000000000000000000006001600160a01b031691823b156101655760405163040b850f60e31b81526001600160a01b0390921660048301526024820152905f908290604490829084905af180156103175761030b575080f35b63ea8e4eb560e01b5f5260045ffd5b34610165575f366003190112610165575f546040516001600160a01b039091168152602090f35b34610165575f366003190112610165576040517f00000000000000000000000000000000000000000000000000000000000000006001600160a01b03168152602090f35b34610165576060366003190112610165576004356104688161031c565b6024356044359167ffffffffffffffff831161016557366023840112156101655782600401359167ffffffffffffffff8311610165573660248486010111610165576024610018940191610675565b34610165575f366003190112610165576040516370a0823160e01b81523060048201526020816024817f00000000000000000000000000000000000000000000000000000000000000006001600160a01b03165afa801561031757610139915f9161052d57506040519081529081906020820190565b61054f915060203d602011610555575b6105478183610643565b81019061068b565b5f610128565b503d61053d565b34610165575f36600319011261016557604051631aab3f0d60e11b81523060048201525f60248201526020816044817f00000000000000000000000000000000000000000000000000000000000000006001600160a01b03165afa801561031757610139915f9161052d57506040519081529081906020820190565b634e487b7160e01b5f52603260045260245ffd5b91908110156102835760051b0190565b903590601e1981360301821215610165570180359067ffffffffffffffff82116101655760200191813603831361016557565b634e487b7160e01b5f52604160045260245ffd5b90601f8019910116810190811067ffffffffffffffff82111761066557604052565b61062f565b6040513d5f823e3d90fd5b90610689939291610684610786565b6107e2565b565b90816020910312610165575190565b67ffffffffffffffff811161066557601f01601f191660200190565b907f19457468657265756d205369676e6564204d6573736167653a0a3332000000005f52601c52603c5f206106fa60018060a01b035f5416926101008101906105fc565b916107048361069a565b906107126040519283610643565b8382523684840111610165575f60208561074096610737968387013784010152610813565b9092919261086b565b6001600160a01b031603610752575f90565b600190565b3d15610781573d906107688261069a565b916107766040519384610643565b82523d5f602084013e565b606090565b337f00000000000000000000000000000000000000000000000000000000000000006001600160a01b03161415806107ce575b6107bf57565b63142888bd60e21b5f5260045ffd5b505f546001600160a01b03163314156107b9565b90925f938493826040519384928337810185815203925af1610802610757565b901561080b5750565b602081519101fd5b81519190604183036108435761083c9250602082015190606060408401519301515f1a906108e7565b9192909190565b50505f9160029190565b6004111561085757565b634e487b7160e01b5f52602160045260245ffd5b6108748161084d565b8061087d575050565b6108868161084d565b6001810361089d5763f645eedf60e01b5f5260045ffd5b6108a68161084d565b600281036108c1575063fce698f760e01b5f5260045260245ffd5b806108cd60039261084d565b146108d55750565b6335e2f38360e21b5f5260045260245ffd5b91907f7fffffffffffffffffffffffffffffff5d576e7357a4501ddfe92f46681b20a0841161095e579160209360809260ff5f9560405194855216868401526040830152606082015282805260015afa15610317575f516001600160a01b0381161561095457905f905f90565b505f906001905f90565b5050505f916003919056fea26469706673582212206fc151a2fe9e3a292b3829ec13e04181c39784b5e3d4e469c684861e6de22a6164736f6c634300081c0033","linkReferences":{}},"methodIdentifiers":{"addDeposit()":"4a58db19","entryPoint()":"b0d691fe","execute(address,uint256,bytes)":"b61d27f6","executeBatch(address[],uint256[],bytes[])":"47e1da2a","getDeposit()":"c399ec88","getNonce()":"d087d288","owner()":"8da5cb5b","validateUserOp((address,uint256,bytes,bytes,bytes32,uint256,bytes32,bytes,bytes),bytes32,uint256)":"19822f7c","withdrawDepositTo(address,uint256)":"4d44560d"},"id":64}