{"abi":[{"type":"receive","stateMutability":"payable"},{"type":"function","name":"addStake","inputs":[{"name":"unstakeDelaySec","type":"uint32","internalType":"uint32"}],"outputs":[],"stateMutability":"payable"},{"type":"function","name":"balanceOf","inputs":[{"name":"account","type":"address","internalType":"address"}],"outputs":[{"name":"","type":"uint256","internalType":"uint256"}],"stateMutability":"view"},{"type":"function","name":"delegateAndRevert","inputs":[{"name":"target","type":"address","internalType":"address"},{"name":"data","type":"bytes","internalType":"bytes"}],"outputs":[],"stateMutability":"nonpayable"},{"type":"function","name":"depositTo","inputs":[{"name":"account","type":"address","internalType":"address"}],"outputs":[],"stateMutability":"payable"},{"type":"function","name":"deposits","inputs":[{"name":"","type":"address","internalType":"address"}],"outputs":[{"name":"deposit","type":"uint256","internalType":"uint256"},{"name":"staked","type":"bool","internalType":"bool"},{"name":"stake","type":"uint112","internalType":"uint112"},{"name":"unstakeDelaySec","type":"uint32","internalType":"uint32"},{"name":"withdrawTime","type":"uint48","internalType":"uint48"}],"stateMutability":"view"},{"type":"function","name":"getDepositInfo","inputs":[{"name":"account","type":"address","internalType":"address"}],"outputs":[{"name":"info","type":"tuple","internalType":"struct IStakeManager.DepositInfo","components":[{"name":"deposit","type":"uint256","internalType":"uint256"},{"name":"staked","type":"bool","internalType":"bool"},{"name":"stake","type":"uint112","internalType":"uint112"},{"name":"unstakeDelaySec","type":"uint32","internalType":"uint32"},{"name":"withdrawTime","type":"uint48","internalType":"uint48"}]}],"stateMutability":"view"},{"type":"function","name":"getNonce","inputs":[{"name":"sender","type":"address","internalType":"address"},{"name":"key","type":"uint192","internalType":"uint192"}],"outputs":[{"name":"nonce","type":"uint256","internalType":"uint256"}],"stateMutability":"view"},{"type":"function","name":"getSenderAddress","inputs":[{"name":"initCode","type":"bytes","internalType":"bytes"}],"outputs":[],"stateMutability":"nonpayable"},{"type":"function","name":"getUserOpHash","inputs":[{"name":"userOp","type":"tuple","internalType":"struct PackedUserOperation","components":[{"name":"sender","type":"address","internalType":"address"},{"name":"nonce","type":"uint256","internalType":"uint256"},{"name":"initCode","type":"bytes","internalType":"bytes"},{"name":"callData","type":"bytes","internalType":"bytes"},{"name":"accountGasLimits","type":"bytes32","internalType":"bytes32"},{"name":"preVerificationGas","type":"uint256","internalType":"uint256"},{"name":"gasFees","type":"bytes32","internalType":"bytes32"},{"name":"paymasterAndData","type":"bytes","internalType":"bytes"},{"name":"signature","type":"bytes","internalType":"bytes"}]}],"outputs":[{"name":"","type":"bytes32","internalType":"bytes32"}],"stateMutability":"view"},{"type":"function","name":"handleAggregatedOps","inputs":[{"name":"opsPerAggregator","type":"tuple[]","internalType":"struct IEntryPoint.UserOpsPerAggregator[]","components":[{"name":"userOps","type":"tuple[]","internalType":"struct PackedUserOperation[]","components":[{"name":"sender","type":"address","internalType":"address"},{"name":"nonce","type":"uint256","internalType":"uint256"},{"name":"initCode","type":"bytes","internalType":"bytes"},{"name":"callData","type":"bytes","internalType":"bytes"},{"name":"accountGasLimits","type":"bytes32","internalType":"bytes32"},{"name":"preVerificationGas","type":"uint256","internalType":"uint256"},{"name":"gasFees","type":"bytes32","internalType":"bytes32"},{"name":"paymasterAndData","type":"bytes","internalType":"bytes"},{"name":"signature","type":"bytes","internalType":"bytes"}]},{"name":"aggregator","type":"address","internalType":"contract IAggregator"},{"name":"signature","type":"bytes","internalType":"bytes"}]},{"name":"beneficiary","type":"address","internalType":"address payable"}],"outputs":[],"stateMutability":"nonpayable"},{"type":"function","name":"handleOps","inputs":[{"name":"ops","type":"tuple[]","internalType":"struct PackedUserOperation[]","components":[{"name":"sender","type":"address","internalType":"address"},{"name":"nonce","type":"uint256","internalType":"uint256"},{"name":"initCode","type":"bytes","internalType":"bytes"},{"name":"callData","type":"bytes","internalType":"bytes"},{"name":"accountGasLimits","type":"bytes32","internalType":"bytes32"},{"name":"preVerificationGas","type":"uint256","internalType":"uint256"},{"name":"gasFees","type":"bytes32","internalType":"bytes32"},{"name":"paymasterAndData","type":"bytes","internalType":"bytes"},{"name":"signature","type":"bytes","internalType":"bytes"}]},{"name":"beneficiary","type":"address","internalType":"address payable"}],"outputs":[],"stateMutability":"nonpayable"},{"type":"function","name":"incrementNonce","inputs":[{"name":"key","type":"uint192","internalType":"uint192"}],"outputs":[],"stateMutability":"nonpayable"},{"type":"function","name":"innerHandleOp","inputs":[{"name":"callData","type":"bytes","internalType":"bytes"},{"name":"opInfo","type":"tuple","internalType":"struct EntryPoint.UserOpInfo","components":[{"name":"mUserOp","type":"tuple","internalType":"struct EntryPoint.MemoryUserOp","components":[{"name":"sender","type":"address","internalType":"address"},{"name":"nonce","type":"uint256","internalType":"uint256"},{"name":"verificationGasLimit","type":"uint256","internalType":"uint256"},{"name":"callGasLimit","type":"uint256","internalType":"uint256"},{"name":"paymasterVerificationGasLimit","type":"uint256","internalType":"uint256"},{"name":"paymasterPostOpGasLimit","type":"uint256","internalType":"uint256"},{"name":"preVerificationGas","type":"uint256","internalType":"uint256"},{"name":"paymaster","type":"address","internalType":"address"},{"name":"maxFeePerGas","type":"uint256","internalType":"uint256"},{"name":"maxPriorityFeePerGas","type":"uint256","internalType":"uint256"}]},{"name":"userOpHash","type":"bytes32","internalType":"bytes32"},{"name":"prefund","type":"uint256","internalType":"uint256"},{"name":"contextOffset","type":"uint256","internalType":"uint256"},{"name":"preOpGas","type":"uint256","internalType":"uint256"}]},{"name":"context","type":"bytes","internalType":"bytes"}],"outputs":[{"name":"actualGasCost","type":"uint256","internalType":"uint256"}],"stateMutability":"nonpayable"},{"type":"function","name":"nonceSequenceNumber","inputs":[{"name":"","type":"address","internalType":"address"},{"name":"","type":"uint192","internalType":"uint192"}],"outputs":[{"name":"","type":"uint256","internalType":"uint256"}],"stateMutability":"view"},{"type":"function","name":"supportsInterface","inputs":[{"name":"interfaceId","type":"bytes4","internalType":"bytes4"}],"outputs":[{"name":"","type":"bool","internalType":"bool"}],"stateMutability":"view"},{"type":"function","name":"unlockStake","inputs":[],"outputs":[],"stateMutability":"nonpayable"},{"type":"function","name":"withdrawStake","inputs":[{"name":"withdrawAddress","type":"address","internalType":"address payable"}],"outputs":[],"stateMutability":"nonpayable"},{"type":"function","name":"withdrawTo","inputs":[{"name":"withdrawAddress","type":"address","internalType":"address payable"},{"name":"withdrawAmount","type":"uint256","internalType":"uint256"}],"outputs":[],"stateMutability":"nonpayable"},{"type":"event","name":"AccountDeployed","inputs":[{"name":"userOpHash","type":"bytes32","indexed":true,"internalType":"bytes32"},{"name":"sender","type":"address","indexed":true,"internalType":"address"},{"name":"factory","type":"address","indexed":false,"internalType":"address"},{"name":"paymaster","type":"address","indexed":false,"internalType":"address"}],"anonymous":false},{"type":"event","name":"BeforeExecution","inputs":[],"anonymous":false},{"type":"event","name":"Deposited","inputs":[{"name":"account","type":"address","indexed":true,"internalType":"address"},{"name":"totalDeposit","type":"uint256","indexed":false,"internalType":"uint256"}],"anonymous":false},{"type":"event","name":"PostOpRevertReason","inputs":[{"name":"userOpHash","type":"bytes32","indexed":true,"internalType":"bytes32"},{"name":"sender","type":"address","indexed":true,"internalType":"address"},{"name":"nonce","type":"uint256","indexed":false,"internalType":"uint256"},{"name":"revertReason","type":"bytes","indexed":false,"internalType":"bytes"}],"anonymous":false},{"type":"event","name":"SignatureAggregatorChanged","inputs":[{"name":"aggregator","type":"address","indexed":true,"internalType":"address"}],"anonymous":false},{"type":"event","name":"StakeLocked","inputs":[{"name":"account","type":"address","indexed":true,"internalType":"address"},{"name":"totalStaked","type":"uint256","indexed":false,"internalType":"uint256"},{"name":"unstakeDelaySec","type":"uint256","indexed":false,"internalType":"uint256"}],"anonymous":false},{"type":"event","name":"StakeUnlocked","inputs":[{"name":"account","type":"address","indexed":true,"internalType":"address"},{"name":"withdrawTime","type":"uint256","indexed":false,"internalType":"uint256"}],"anonymous":false},{"type":"event","name":"StakeWithdrawn","inputs":[{"name":"account","type":"address","indexed":true,"internalType":"address"},{"name":"withdrawAddress","type":"address","indexed":false,"internalType":"address"},{"name":"amount","type":"uint256","indexed":false,"internalType":"uint256"}],"anonymous":false},{"type":"event","name":"UserOperationEvent","inputs":[{"name":"userOpHash","type":"bytes32","indexed":true,"internalType":"bytes32"},{"name":"sender","type":"address","indexed":true,"internalType":"address"},{"name":"paymaster","type":"address","indexed":true,"internalType":"address"},{"name":"nonce","type":"uint256","indexed":false,"internalType":"uint256"},{"name":"success","type":"bool","indexed":false,"internalType":"bool"},{"name":"actualGasCost","type":"uint256","indexed":false,"internalType":"uint256"},{"name":"actualGasUsed","type":"uint256","indexed":false,"internalType":"uint256"}],"anonymous":false},{"type":"event","name":"UserOperationPrefundTooLow","inputs":[{"name":"userOpHash","type":"bytes32","indexed":true,"internalType":"bytes32"},{"name":"sender","type":"address","indexed":true,"internalType":"address"},{"name":"nonce","type":"uint256","indexed":false,"internalType":"uint256"}],"anonymous":false},{"type":"event","name":"UserOperationRevertReason","inputs":[{"name":"userOpHash","type":"bytes32","indexed":true,"internalType":"bytes32"},{"name":"sender","type":"address","indexed":true,"internalType":"address"},{"name":"nonce","type":"uint256","indexed":false,"internalType":"uint256"},{"name":"revertReason","type":"bytes","indexed":false,"internalType":"bytes"}],"anonymous":false},{"type":"event","name":"Withdrawn","inputs":[{"name":"account","type":"address","indexed":true,"internalType":"address"},{"name":"withdrawAddress","type":"address","indexed":false,"internalType":"address"},{"name":"amount","type":"uint256","indexed":false,"internalType":"uint256"}],"anonymous":false},{"type":"error","name":"DelegateAndRevert","inputs":[{"name":"success","type":"bool","internalType":"bool"},{"name":"ret","type":"bytes","internalType":"bytes"}]},{"type":"error","name":"FailedOp","inputs":[{"name":"opIndex","type":"uint256","internalType":"uint256"},{"name":"reason","type":"string","internalType":"string"}]},{"type":"error","name":"FailedOpWithRevert","inputs":[{"name":"opIndex","type":"uint256","internalType":"uint256"},{"name":"reason","type":"string","internalType":"string"},{"name":"inner","type":"bytes","internalType":"bytes"}]},{"type":"error","name":"PostOpReverted","inputs":[{"name":"returnData","type":"bytes","internalType":"bytes"}]},{"type":"error","name":"ReentrancyGuardReentrantCall","inputs":[]},{"type":"error","name":"SenderAddressResult","inputs":[{"name":"sender","type":"address","internalType":"address"}]},{"type":"error","name":"SignatureValidationFailed","inputs":[{"name":"aggregator","type":"address","internalType":"address"}]}],"bytecode":{"object":"0x60a0806040523460765760016002556101678181016001600160401b038111838210176062578291612f35833903905ff08015605757608052604051612eba908161007b82396080518181816109c901526124f00152f35b6040513d5f823e3d90fd5b634e487b7160e01b5f52604160045260245ffd5b5f80fdfe60806040526004361015610023575b3615610018575f80fd5b61002133611c5a565b005b5f5f3560e01c806242dc531461136457806301ffc9a7146112c55780630396cb60146110765780630bd28e3b146110245780631b2e01b814610fd1578063205c287814610eb457806322cdde4c14610e6b57806335567e1a14610e035780635287ce1214610d3157806370a0823114610cf9578063765e827f14610ae4578063850aaf6214610a5c5780639b249f691461096a578063b760faf91461094a578063bb9fe6bf1461081b578063c23a5cea14610645578063dbed18e0146101705763fc7e286d146100f3575061000e565b3461016d57602036600319011261016d5760a0906040906001600160a01b0361011a6118d0565b168152806020522065ffffffffffff6001825492015460405192835260ff8116151560208401526001600160701b038160081c16604084015263ffffffff8160781c16606084015260981c166080820152f35b80fd5b503461016d5761017f36611929565b9061018b939293611e33565b8291835b828110610495575090916101a290611b1e565b9183845b8281106102bd5750507fbb47ee3e183a558b1a2ff0874b079f3fc5478b7454eacf2bfc5af2ff5878f9728480a183928491855b81811061021857866102108787837f575ff3acadd5ab348fe1855e217e0f3678f8d767d7494c9f9fefbee2e17cca4d8180a2612bc4565b600160025580f35b61026561022682848b611c9c565b6001600160a01b0361023a60208301611cf3565b167f575ff3acadd5ab348fe1855e217e0f3678f8d767d7494c9f9fefbee2e17cca4d8a80a280611cbe565b9088915b80831061027b575050506001016101d9565b909195976102b46102ae6001926102a88c6102978c888a611bf8565b6102a1828d611bd0565b519161284a565b906119cd565b996119ee565b96019190610269565b6102c8818489611c9c565b60206102e06102d78380611cbe565b92909301611cf3565b88926001600160a01b03909116905b82841061030257505050506001016101a6565b9091929461032f610328610316838c611bd0565b51610322898887611bf8565b84611e51565b9190612df0565b906001600160a01b031685036104525761040c5761034c90612df0565b906001600160a01b03166103c957610373576103696001916119ee565b95019291906102ef565b60a48660405190631101335b60e11b8252600482015260406024820152602160448201527f41413332207061796d61737465722065787069726564206f72206e6f742064756064820152606560f81b6084820152fd5b60848760405190631101335b60e11b8252600482015260406024820152601460448201527320a0999a1039b4b3b730ba3ab9329032b93937b960611b6064820152fd5b60848760405190631101335b60e11b82526004820152604060248201526017604482015276414132322065787069726564206f72206e6f742064756560481b6064820152fd5b60848860405190631101335b60e11b8252600482015260406024820152601460448201527320a0991a1039b4b3b730ba3ab9329032b93937b960611b6064820152fd5b6104a0818488611c9c565b936104ab8580611cbe565b91906001600160a01b036104c160208901611cf3565b16966001881461060057876104ed575b505060019293949550906104e4916119cd565b9392910161018f565b8060406104fb920190611d07565b889291923b156105fc57918991604051938492632dd8113360e01b845287604485016040600487015252606484019260648960051b8601019381879061011e1981360301905b8c83106105b5575050505050838303600319016024850152849392839261056792611c3a565b03818b5afa918261059c575b505061058d5763086a9f7560e41b87526004869052602487fd5b93945084936104e460016104d1565b816105a69161185e565b6105b157875f610573565b8780fd5b9295975092975092946063198982030185528735838112156105f75760206105e260019385839401611d6a565b9901950193018f979593919289979593610541565b508f80fd5b8980fd5b60405162461bcd60e51b815260206004820152601760248201527f4141393620696e76616c69642061676772656761746f720000000000000000006044820152606490fd5b503461016d57602036600319011261016d5761065f6118d0565b3382528160205260016040832001908154906001600160701b038260081c169182156107df5760981c65ffffffffffff16801561079a574210610755578254610100600160c81b0319168355604080516001600160a01b03831681526020810184905285938493849384938493929133917fb7c918e0e249f999e965cafeb6c664271b3f4317d296461500e71da39f0cbda39190a26001600160a01b03165af1610707611a09565b50156107105780f35b60405162461bcd60e51b815260206004820152601860248201527f6661696c656420746f207769746864726177207374616b6500000000000000006044820152606490fd5b60405162461bcd60e51b815260206004820152601b60248201527f5374616b65207769746864726177616c206973206e6f742064756500000000006044820152606490fd5b60405162461bcd60e51b815260206004820152601d60248201527f6d7573742063616c6c20756e6c6f636b5374616b6528292066697273740000006044820152606490fd5b60405162461bcd60e51b81526020600482015260146024820152734e6f207374616b6520746f20776974686472617760601b6044820152606490fd5b503461016d578060031936011261016d573381528060205260016040822001805463ffffffff8160781c169081156109185760ff16156108df5765ffffffffffff4216019065ffffffffffff82116108cb57805460ff65ffffffffffff60981b01191665ffffffffffff60981b609884901b1617905560405165ffffffffffff909116815233907ffa9b3c14cc825c412c9ed81b3ba365a5b459439403f18829e572ed53a4180f0a90602090a280f35b634e487b7160e01b83526011600452602483fd5b60405162461bcd60e51b8152602060048201526011602482015270616c726561647920756e7374616b696e6760781b6044820152606490fd5b60405162461bcd60e51b815260206004820152600a6024820152691b9bdd081cdd185ad95960b21b6044820152606490fd5b50602036600319011261016d576109676109626118d0565b611c5a565b80f35b503461016d57602036600319011261016d576004356001600160401b038111610a58579060206109a16109c49336906004016118e6565b604051632b870d1b60e11b81526004810184905294859283926024840191611c3a565b0381847f00000000000000000000000000000000000000000000000000000000000000006001600160a01b03165af18015610a4b576024928291610a1c575b50633653dc0360e11b82526001600160a01b0316600452fd5b610a3e915060203d602011610a44575b610a36818361185e565b810190611c1b565b5f610a03565b503d610a2c565b50604051903d90823e3d90fd5b5080fd5b503461016d57604036600319011261016d5780610a776118d0565b6024356001600160401b038111610ae057610a969036906004016118e6565b90816040519283928337810184815203915af4610ab1611a09565b60408051632650415560e21b8152921515600484015260248301528190610adc90604483019061198f565b0390fd5b5050fd5b503461016d57610af336611929565b929190610afe611e33565b610b0781611b1e565b91835b828110610b7f575083927fbb47ee3e183a558b1a2ff0874b079f3fc5478b7454eacf2bfc5af2ff5878f9728580a184925b808410610b4d57856102108689612bc4565b90919293600190610b74610b62878588611bf8565b610b6c8887611bd0565b51908861284a565b019401929190610b3b565b610b9e610328610b928387959697611bd0565b51610322848888611bf8565b906001600160a01b0316610cb657610c7057610bb990612df0565b906001600160a01b0316610c2d57610bd75760010192919092610b0a565b60a49060405190631101335b60e11b8252600482015260406024820152602160448201527f41413332207061796d61737465722065787069726564206f72206e6f742064756064820152606560f81b6084820152fd5b60848260405190631101335b60e11b8252600482015260406024820152601460448201527320a0999a1039b4b3b730ba3ab9329032b93937b960611b6064820152fd5b60848260405190631101335b60e11b82526004820152604060248201526017604482015276414132322065787069726564206f72206e6f742064756560481b6064820152fd5b60848360405190631101335b60e11b8252600482015260406024820152601460448201527320a0991a1039b4b3b730ba3ab9329032b93937b960611b6064820152fd5b503461016d57602036600319011261016d576020906040906001600160a01b03610d216118d0565b1681528083522054604051908152f35b503461016d57602036600319011261016d57604060a091610d506118d0565b8160808451610d5e816117f8565b82815282602082015282868201528260608201520152600180851b03168152806020522065ffffffffffff604051610d95816117f8565b63ffffffff60018454948584520154916001600160701b036020820160ff8516151581526040830190828660081c1682528660806060860195878960781c168752019660981c1686526040519788525115156020880152511660408601525116606084015251166080820152f35b503461016d57604036600319011261016d576020906040610e226118d0565b91610e2b611913565b6001600160a01b03909316815260018452206001600160c01b0382165f9081529083526040908190205481519290911b67ffffffffffffffff1916178152f35b503461016d57602036600319011261016d57600435906001600160401b03821161016d57610120600319833603011261016d576020610eac83600401611a38565b604051908152f35b503461016d57604036600319011261016d57610ece6118d0565b6024359033835282602052604083208054808411610f8c5784808581958295610ef88385976119fc565b9055604080516001600160a01b03831681526020810184905233917fd1c19fbcd4551a5edfb66d43d2e337c04837afda3482b42bdf569a8fccdae5fb91a26001600160a01b03165af1610f49611a09565b5015610f525780f35b60405162461bcd60e51b81526020600482015260126024820152716661696c656420746f20776974686472617760701b6044820152606490fd5b60405162461bcd60e51b815260206004820152601960248201527f576974686472617720616d6f756e7420746f6f206c61726765000000000000006044820152606490fd5b503461016d57604036600319011261016d576040610fed6118d0565b91610ff6611913565b9260018060a01b031681526001602052209060018060c01b03165f52602052602060405f2054604051908152f35b503461016d57602036600319011261016d576004356001600160c01b0381168103610a58573382526001602052604082209060018060c01b03165f5260205260405f2061107181546119ee565b905580f35b50602036600319011261016d5760043563ffffffff8116809103610a5857338252816020526040822090801561128057600182015463ffffffff8160781c16821061123b576110d2906001600160701b03349160081c166119cd565b918215611201576001600160701b0383116111cb5754604051611197916110f8826117f8565b8152600160208083018281526001600160701b038716604080860191825260608601888152608087018b8152338c52948b9052908a209551865591519490930180549351915192516001600160c81b031990941660ff951515959095169490941760089190911b6effffffffffffffffffffffffffff00161760789190911b63ffffffff60781b161760989190911b65ffffffffffff60981b16179055565b60405191825260208201527fa5ae833d0bb1dcd632d98a8b70973e8516812898e19bf27b70071ebc8dc52c0160403392a280f35b60405162461bcd60e51b815260206004820152600e60248201526d7374616b65206f766572666c6f7760901b6044820152606490fd5b60405162461bcd60e51b81526020600482015260126024820152711b9bc81cdd185ad9481cdc1958da599a595960721b6044820152606490fd5b60405162461bcd60e51b815260206004820152601c60248201527f63616e6e6f7420646563726561736520756e7374616b652074696d65000000006044820152606490fd5b60405162461bcd60e51b815260206004820152601a60248201527f6d757374207370656369667920756e7374616b652064656c61790000000000006044820152606490fd5b503461016d57602036600319011261016d5760043563ffffffff60e01b8116809103610a585760209063307e35b760e11b8114908115611353575b8115611342575b8115611331575b8115611320575b506040519015158152f35b6301ffc9a760e01b14905082611315565b633e84f02160e01b8114915061130e565b63cf28ef9760e01b81149150611307565b63122a0e9b60e31b81149150611300565b50346116d2576102003660031901126116d2576004356001600160401b0381116116d257366023820112156116d2576113a790369060248160040135910161189a565b9036602319016101c081126116d257610140604051916113c6836117f8565b126116d2576040516113d781611827565b6024356001600160a01b03811681036116d257815260443560208201526064356040820152608435606082015260a435608082015260c43560a082015260e43560c0820152610104356001600160a01b03811681036116d25760e08201526101243561010082015261014435610120820152815260208101610164358152604082016101843581526101a435606084015260808301906101c43582526101e4356001600160401b0381116116d2576114939036906004016118e6565b935a903033036117b357865190606082015199603f5a0260061c61271060a08501518d0101116117a4575f9a815191826116ea575b5050505050906114e0915a900384510194369161189a565b5a928551946114ee86612c98565b60e087015190936001600160a01b0390911690816115e957505085516001600160a01b0316945b5a9003019460a060608201519101510190518503908181116115d5575b505083029051918183105f14611590575050600385101561157c5760209460020361156d57610eac929350809361156881612d8c565b612cc2565b505063deadaa5160e01b825250fd5b634e487b7160e01b84526021600452602484fd5b816115a19296939794970390612c75565b5060038210156115c1575092826115bc926020951590612d27565b610eac565b634e487b7160e01b81526021600452602490fd5b6064919003600a0204909301925f80611532565b8196919681516115fb575b5050611515565b60038c10156116d65760028c03156115f45760a089015191813b156116d25761164b928d5f8094604051809781968295637c627b2160e01b8452600484015260806024840152608483019061198f565b8c8b0260448301528c60648301520393f190816116bd575b506116b657610adc893d61080081116116ad575b60405191602082840101604052818352602083013e604051632b5e552f60e21b815260206004820152918291602483019061198f565b50610800611677565b5f806115f4565b6116ca919a505f9061185e565b5f985f611663565b5f80fd5b634e487b7160e01b5f52602160045260245ffd5b915f9291838093602060018060a01b03895116910192f11561170f575b8080806114c8565b6114e0939299503d90610800821161179a575b604051916020818401016040528083525f602084013e815161174d575b50505060019790915f611707565b7f1c4fada7374c0a9ee8841fc38afe82932dc0f8e69012e927f061a8bae611a201905191602060018060a01b0385511694015161178f604051928392836119b3565b0390a35f808061173f565b6108009150611722565b63deaddead60e01b5f5260205ffd5b60405162461bcd60e51b815260206004820152601760248201527f4141393220696e7465726e616c2063616c6c206f6e6c790000000000000000006044820152606490fd5b60a081019081106001600160401b0382111761181357604052565b634e487b7160e01b5f52604160045260245ffd5b61014081019081106001600160401b0382111761181357604052565b606081019081106001600160401b0382111761181357604052565b90601f801991011681019081106001600160401b0382111761181357604052565b6001600160401b03811161181357601f01601f191660200190565b9291926118a68261187f565b916118b4604051938461185e565b8294818452818301116116d2578281602093845f960137010152565b600435906001600160a01b03821682036116d257565b9181601f840112156116d2578235916001600160401b0383116116d257602083818601950101116116d257565b602435906001600160c01b03821682036116d257565b9060406003198301126116d2576004356001600160401b0381116116d25760040182601f820112156116d2578035926001600160401b0384116116d2576020808301928560051b0101116116d25791906024356001600160a01b03811681036116d25790565b805180835260209291819084018484015e5f828201840152601f01601f1916010190565b6040906119ca93928152816020820152019061198f565b90565b919082018092116119da57565b634e487b7160e01b5f52601160045260245ffd5b5f1981146119da5760010190565b919082039182116119da57565b3d15611a33573d90611a1a8261187f565b91611a28604051938461185e565b82523d5f602084013e565b606090565b611a456040820182611d07565b90816040519182372090611a5c6060820182611d07565b9081604051918237209060c0611a7560e0830183611d07565b9081604051918237209160405193602085019560018060a01b0383351687526020830135604087015260608601526080850152608081013560a085015260a081013582850152013560e08301526101008201526101008152611ad96101208261185e565b5190206040516020810191825230604082015246606082015260608152611b0160808261185e565b51902090565b6001600160401b0381116118135760051b60200190565b90611b2882611b07565b611b35604051918261185e565b8281528092611b46601f1991611b07565b01905f5b828110611b5657505050565b602090604051611b65816117f8565b604051611b7181611827565b5f81525f848201525f60408201525f60608201525f60808201525f60a08201525f60c08201525f60e08201525f6101008201525f61012082015281525f838201525f60408201525f60608201525f608082015282828501015201611b4a565b8051821015611be45760209160051b010190565b634e487b7160e01b5f52603260045260245ffd5b9190811015611be45760051b8101359061011e19813603018212156116d2570190565b908160209103126116d257516001600160a01b03811681036116d25790565b908060209392818452848401375f828201840152601f01601f1916010190565b7f2da466a7b24304f47e87fa2e1e5a81b9831ce54fec19055ce277ca2f39ba42c46020611c873484612c75565b6040519081526001600160a01b0390931692a2565b9190811015611be45760051b81013590605e19813603018212156116d2570190565b903590601e19813603018212156116d257018035906001600160401b0382116116d257602001918160051b360383136116d257565b356001600160a01b03811681036116d25790565b903590601e19813603018212156116d257018035906001600160401b0382116116d2576020019181360383136116d257565b9035601e19823603018112156116d25701602081359101916001600160401b0382116116d25781360383136116d257565b8035916001600160a01b03831683036116d2576001600160a01b039092168252602081810135908301526119ca91611e24611e18611ddf611dc4611db16040870187611d39565b6101206040880152610120870191611c3a565b611dd16060870187611d39565b908683036060880152611c3a565b6080850135608085015260a085013560a085015260c085013560c0850152611e0a60e0860186611d39565b9085830360e0870152611c3a565b92610100810190611d39565b91610100818503910152611c3a565b6002805414611e425760028055565b633ee5aeb560e01b5f5260045ffd5b929190915f905a928051853560018060a01b0381168091036116d25781526020810194602087013586526080870135916001600160801b038360801c9316604082019360608301918252845260a08901359360c0830185815260c08b0135906001600160801b038260801c92169161012086019061010087019384528152611edd8d60e0810190611d07565b908115612792576034821061274d57816014116116d257803591806024116116d2576014820135906034116116d25760249190910135608090811c60a08a015290811c9088015260601c60e08701525b611f368d611a38565b9360208a0194855280519586845117815117916effffffffffffffffffffffffffffff60808a01938451179460a08b0195865117885117905117116127085751905101905101905101905101905102918a875160018060a01b0381511690611fa16040840184611d07565b806124a6575b505060e001516001600160a01b031615915f9083612477575b602090865190611fe460405194859384936306608bdf60e21b855260048501612dce565b03815f8689f15f9181612443575b50612070573d8f6108008211612066575b604051916020818401016040528083525f602084013e610adc6040519283926365c8fd4d60e01b8452600484015260606024840152600d60648401526c10504c8cc81c995d995c9d1959609a1b608484015260a0604484015260a483019061198f565b6108009150612003565b9d9495969798999a9b9c9d916123d9575b5085519b516001600160a01b03909c165f9081526001602090815260408083208f821c845290915290208054919c6001600160401b03916120c1846119ee565b9055160361238d575a8603116123415760e090930151606093906001600160a01b0316612106575b50508495969798506040608095015260608501525a900301910152565b9192509796505a9085519960018060a01b0360e08c01511690815f525f60205260405f2080548681106122f557915f60806121689d9e9f8296948a809703905501519551916040519d8e95869485936314add44b60e21b855260048501612dce565b039286f197885f915f9a612276575b506121f5573d8b61080082116121eb575b604051916020818401016040528083525f602084013e610adc6040519283926365c8fd4d60e01b8452600484015260606024840152600d60648401526c10504cccc81c995d995c9d1959609a1b608484015260a0604484015260a483019061198f565b6108009150612188565b9991929394959697989998925a90031161221a5750879690959493929160805f6120e9565b60a49060405190631101335b60e11b8252600482015260406024820152602760448201527f41413336206f766572207061796d6173746572566572696669636174696f6e47606482015266185cd31a5b5a5d60ca1b6084820152fd5b915098503d805f833e612289818361185e565b8101906040818303126116d25780516001600160401b0381116116d25781019082601f830112156116d25781516122bf8161187f565b936122cd604051958661185e565b818552602082850101116116d2576020815f92828096018388015e850101520151985f612177565b60848d60405190631101335b60e11b8252600482015260406024820152601e60448201527f41413331207061796d6173746572206465706f73697420746f6f206c6f7700006064820152fd5b60848260405190631101335b60e11b8252600482015260406024820152601e60448201527f41413236206f76657220766572696669636174696f6e4761734c696d697400006064820152fd5b60848360405190631101335b60e11b8252600482015260406024820152601a60448201527f4141323520696e76616c6964206163636f756e74206e6f6e63650000000000006064820152fd5b5f525f60205260405f2080548087116123f75786900390555f612081565b60848660405190631101335b60e11b8252600482015260406024820152601760448201527f41413231206469646e2774207061792070726566756e640000000000000000006064820152fd5b9091506020813d60201161246f575b8161245f6020938361185e565b810103126116d25751905f611ff2565b3d9150612452565b5050805f525f6020528c60405f20548681115f1461249c575060205f5b919050611fc0565b6020908703612494565b82519194506001600160a01b0390911690813b6126ba5760408c51015160206040518092632b870d1b60e11b8252826004830152815f816124ec8c896024840191611c3a565b03927f00000000000000000000000000000000000000000000000000000000000000006001600160a01b031690f19081156126af575f91612690575b506001600160a01b03811680156126405783036125f1573b156125a3576014116116d2578a8f9460407fd51a9c61267aa6196961883ecf5ff2da6619c37dac0fa92122513fb32c032d2d913589519360e060018060a01b03915101511682519160018060a01b039060601c1682526020820152a35f80611fa7565b505060848f60405190631101335b60e11b8252600482015260406024820152602060448201527f4141313520696e6974436f6465206d757374206372656174652073656e6465726064820152fd5b50505060848f60405190631101335b60e11b8252600482015260406024820152602060448201527f4141313420696e6974436f6465206d7573742072657475726e2073656e6465726064820152fd5b5050505060848f60405190631101335b60e11b8252600482015260406024820152601b60448201527f4141313320696e6974436f6465206661696c6564206f72204f4f4700000000006064820152fd5b6126a9915060203d602011610a4457610a36818361185e565b5f612528565b6040513d5f823e3d90fd5b505060848f60405190631101335b60e11b8252600482015260406024820152601f60448201527f414131302073656e64657220616c726561647920636f6e7374727563746564006064820152fd5b60405162461bcd60e51b815260206004820152601860248201527f41413934206761732076616c756573206f766572666c6f7700000000000000006044820152606490fd5b60405162461bcd60e51b815260206004820152601d60248201527f4141393320696e76616c6964207061796d6173746572416e64446174610000006044820152606490fd5b50505f60e08701525f60808701525f60a0870152611f2d565b60806101a091610120815160018060a01b038151168652602081015160208701526040810151604087015260608101516060870152838101518487015260a081015160a087015260c081015160c087015260018060a01b0360e08201511660e087015261010081015161010087015201516101208501526020810151610140850152604081015161016085015260608101516101808501520151910152565b9092915a606082015160405195866128656060830183611d07565b5f60038211612bbc575b6001600160e01b031916638dd7712f60e01b03612b59575050505f6128fb6129296128c06128d4602095868a0151604051938492638dd7712f60e01b8a850152604060248501526064840190611d6a565b90604483015203601f19810183528261185e565b61291b6040519384926242dc5360e01b88850152610200602485015261022484019061198f565b612908604484018b6127ab565b828103602319016102048401528761198f565b03601f19810183528261185e565b828151910182305af15f519660405215612944575b50505050565b9091929394505f3d602014612b4c575b63deaddead60e01b81036129a05760848560405190631101335b60e11b8252600482015260406024820152600f60448201526e41413935206f7574206f662067617360881b6064820152fd5b929350909163deadaa5160e01b036129ea57506129cf6129c46129df925a906119fc565b6080840151906119cd565b6040830151836115688295612d8c565b905b5f80808061293e565b90612a629060208401518451907ff62676f440ff169a3a9afdbf812e89e7f95975ee8e5c31214ffdef631c5f4792602060018060a01b038451169301513d906108008211612b42575b604051916020818401016040528083525f602084013e612a58604051928392836119b3565b0390a35a906119fc565b90612a7360808401928351906119cd565b915a915f91855194612a8486612c98565b60e08701519093906001600160a01b031680612b3257505085516001600160a01b0316945b5a9003019460a06060820151910151019051850390818111612b1e575b505083026040850151928184105f14612af7575050806115c157509081612af1929361156881612d8c565b906129e1565b612b079082849397950390612c75565b506115c1575090825f612b1993612d27565b612af1565b6064919003600a0204909301925f80612ac6565b95905115612aa9575f9450612aa9565b6108009150612a33565b5060205f803e5f51612954565b6242dc5360e01b60208401526102006024840152612bb39350612ba591612b8591610224850191611c3a565b612b9260448401886127ab565b828103602319016102048401528461198f565b03601f19810188528761185e565b60205f87612929565b50813561286f565b6001600160a01b03168015612c30575f80809381935af1612be3611a09565b5015612beb57565b60405162461bcd60e51b815260206004820152601f60248201527f41413931206661696c65642073656e6420746f2062656e6566696369617279006044820152606490fd5b60405162461bcd60e51b815260206004820152601860248201527f4141393020696e76616c69642062656e656669636961727900000000000000006044820152606490fd5b60018060a01b03165f525f602052612c9260405f209182546119cd565b80915590565b610120610100820151910151808214612cbe57480180821015612cb9575090565b905090565b5090565b9190917f49628fd1471006c1482da88028e9ce4dbb080b815c9b0344d39e5a8e6ec1419f6080602083015192519460018060a01b0386511694602060018060a01b0360e089015116970151916040519283525f602084015260408301526060820152a4565b9060807f49628fd1471006c1482da88028e9ce4dbb080b815c9b0344d39e5a8e6ec1419f91602084015193519560018060a01b0387511695602060018060a01b0360e08a015116980151926040519384521515602084015260408301526060820152a4565b60208101519051907f67b4fa9642f42120bf031f3051d1824b0fe25627945b27b8a6a65d5761d5482e60208060018060a01b03855116940151604051908152a3565b612de660409295949395606083526060830190611d6a565b9460208201520152565b8015612e7d575f60408051612e0481611843565b8281526020810183905201526001600160a01b0381169060a081901c65ffffffffffff16908115612e6f575b60409060d01c9165ffffffffffff825191612e4a83611843565b8583528460208401521691829101524211908115612e6757509091565b905042109091565b65ffffffffffff9150612e30565b505f905f9056fea26469706673582212208009e9beec28e8e0cbe6e88a6951ed2e1ad0185f15467532d882abb247d7765364736f6c634300081c00336080806040523460155761014d908161001a8239f35b5f80fdfe6080600436101561000e575f80fd5b5f3560e01c63570e1a3614610021575f80fd5b34610113576020366003190112610113576004359067ffffffffffffffff821161011357366023830112156101135781600401359167ffffffffffffffff8311610113573660248483010111610113578260141161011357601319830167ffffffffffffffff81116100ff57600b8401601f19908116603f011683019367ffffffffffffffff8511848610176100ff5760245f9485600c819460209960405286845289840196603889018837830101525193013560601c5af15f5190156100f8575b6040516001600160a01b039091168152602090f35b505f6100e3565b634e487b7160e01b5f52604160045260245ffd5b5f80fdfea2646970667358221220fce529db0f82f8149bd2d7cffb0b5001ed6104b688132ebd8581c195295c762d64736f6c634300081c0033","linkReferences":{}},"methodIdentifiers":{"addStake(uint32)":"0396cb60","balanceOf(address)":"70a08231","delegateAndRevert(address,bytes)":"850aaf62","depositTo(address)":"b760faf9","deposits(address)":"fc7e286d","getDepositInfo(address)":"5287ce12","getNonce(address,uint192)":"35567e1a","getSenderAddress(bytes)":"9b249f69","getUserOpHash((address,uint256,bytes,bytes,bytes32,uint256,bytes32,bytes,bytes))":"22cdde4c","handleAggregatedOps(((address,uint256,bytes,bytes,bytes32,uint256,bytes32,bytes,bytes)[],address,bytes)[],address)":"dbed18e0","handleOps((address,uint256,bytes,bytes,bytes32,uint256,bytes32,bytes,bytes)[],address)":"765e827f","incrementNonce(uint192)":"0bd28e3b","innerHandleOp(bytes,((address,uint256,uint256,uint256,uint256,uint256,uint256,address,uint256,uint256),bytes32,uint256,uint256,uint256),bytes)":"0042dc53","nonceSequenceNumber(address,uint192)":"1b2e01b8","supportsInterface(bytes4)":"01ffc9a7","unlockStake()":"bb9fe6bf","withdrawStake(address)":"c23a5cea","withdrawTo(address,uint256)":"205c2878"},"id":2}